{
  "_format": "hh-sol-artifact-1",
  "contractName": "MNFT",
  "sourceName": "contracts/MNFT.sol",
  "abi": [
    {
      "inputs": [],
      "stateMutability": "nonpayable",
      "type": "constructor"
    },
    {
      "inputs": [
        {
          "internalType": "address",
          "name": "sender",
          "type": "address"
        },
        {
          "internalType": "uint256",
          "name": "tokenId",
          "type": "uint256"
        },
        {
          "internalType": "address",
          "name": "owner",
          "type": "address"
        }
      ],
      "name": "ERC721IncorrectOwner",
      "type": "error"
    },
    {
      "inputs": [
        {
          "internalType": "address",
          "name": "operator",
          "type": "address"
        },
        {
          "internalType": "uint256",
          "name": "tokenId",
          "type": "uint256"
        }
      ],
      "name": "ERC721InsufficientApproval",
      "type": "error"
    },
    {
      "inputs": [
        {
          "internalType": "address",
          "name": "approver",
          "type": "address"
        }
      ],
      "name": "ERC721InvalidApprover",
      "type": "error"
    },
    {
      "inputs": [
        {
          "internalType": "address",
          "name": "operator",
          "type": "address"
        }
      ],
      "name": "ERC721InvalidOperator",
      "type": "error"
    },
    {
      "inputs": [
        {
          "internalType": "address",
          "name": "owner",
          "type": "address"
        }
      ],
      "name": "ERC721InvalidOwner",
      "type": "error"
    },
    {
      "inputs": [
        {
          "internalType": "address",
          "name": "receiver",
          "type": "address"
        }
      ],
      "name": "ERC721InvalidReceiver",
      "type": "error"
    },
    {
      "inputs": [
        {
          "internalType": "address",
          "name": "sender",
          "type": "address"
        }
      ],
      "name": "ERC721InvalidSender",
      "type": "error"
    },
    {
      "inputs": [
        {
          "internalType": "uint256",
          "name": "tokenId",
          "type": "uint256"
        }
      ],
      "name": "ERC721NonexistentToken",
      "type": "error"
    },
    {
      "anonymous": false,
      "inputs": [
        {
          "indexed": true,
          "internalType": "address",
          "name": "owner",
          "type": "address"
        },
        {
          "indexed": true,
          "internalType": "address",
          "name": "approved",
          "type": "address"
        },
        {
          "indexed": true,
          "internalType": "uint256",
          "name": "tokenId",
          "type": "uint256"
        }
      ],
      "name": "Approval",
      "type": "event"
    },
    {
      "anonymous": false,
      "inputs": [
        {
          "indexed": true,
          "internalType": "address",
          "name": "owner",
          "type": "address"
        },
        {
          "indexed": true,
          "internalType": "address",
          "name": "operator",
          "type": "address"
        },
        {
          "indexed": false,
          "internalType": "bool",
          "name": "approved",
          "type": "bool"
        }
      ],
      "name": "ApprovalForAll",
      "type": "event"
    },
    {
      "anonymous": false,
      "inputs": [
        {
          "indexed": false,
          "internalType": "address",
          "name": "user",
          "type": "address"
        },
        {
          "indexed": false,
          "internalType": "uint256",
          "name": "nft",
          "type": "uint256"
        },
        {
          "indexed": false,
          "internalType": "uint256",
          "name": "time",
          "type": "uint256"
        }
      ],
      "name": "Mint",
      "type": "event"
    },
    {
      "anonymous": false,
      "inputs": [
        {
          "indexed": false,
          "internalType": "uint256",
          "name": "orderId",
          "type": "uint256"
        },
        {
          "indexed": false,
          "internalType": "uint256",
          "name": "proposalId",
          "type": "uint256"
        },
        {
          "indexed": false,
          "internalType": "uint256",
          "name": "time",
          "type": "uint256"
        }
      ],
      "name": "OrderClosed",
      "type": "event"
    },
    {
      "anonymous": false,
      "inputs": [
        {
          "indexed": false,
          "internalType": "uint256",
          "name": "id",
          "type": "uint256"
        },
        {
          "indexed": false,
          "internalType": "uint256",
          "name": "nft",
          "type": "uint256"
        },
        {
          "indexed": false,
          "internalType": "uint256",
          "name": "price",
          "type": "uint256"
        },
        {
          "indexed": false,
          "internalType": "bool",
          "name": "isClosed",
          "type": "bool"
        },
        {
          "indexed": false,
          "internalType": "address",
          "name": "owner",
          "type": "address"
        }
      ],
      "name": "OrderPlaced",
      "type": "event"
    },
    {
      "anonymous": false,
      "inputs": [
        {
          "indexed": false,
          "internalType": "uint256",
          "name": "id",
          "type": "uint256"
        },
        {
          "indexed": false,
          "internalType": "uint256",
          "name": "orderId",
          "type": "uint256"
        },
        {
          "indexed": false,
          "internalType": "uint256",
          "name": "nft",
          "type": "uint256"
        },
        {
          "indexed": false,
          "internalType": "uint256",
          "name": "price",
          "type": "uint256"
        },
        {
          "indexed": false,
          "internalType": "bool",
          "name": "isClosed",
          "type": "bool"
        },
        {
          "indexed": false,
          "internalType": "address",
          "name": "author",
          "type": "address"
        },
        {
          "indexed": false,
          "internalType": "address",
          "name": "orderOwner",
          "type": "address"
        }
      ],
      "name": "ProposalPlaced",
      "type": "event"
    },
    {
      "anonymous": false,
      "inputs": [
        {
          "indexed": true,
          "internalType": "address",
          "name": "from",
          "type": "address"
        },
        {
          "indexed": true,
          "internalType": "address",
          "name": "to",
          "type": "address"
        },
        {
          "indexed": true,
          "internalType": "uint256",
          "name": "tokenId",
          "type": "uint256"
        }
      ],
      "name": "Transfer",
      "type": "event"
    },
    {
      "inputs": [],
      "name": "MAX_SUPPLY",
      "outputs": [
        {
          "internalType": "uint256",
          "name": "",
          "type": "uint256"
        }
      ],
      "stateMutability": "view",
      "type": "function"
    },
    {
      "inputs": [
        {
          "internalType": "address",
          "name": "to",
          "type": "address"
        },
        {
          "internalType": "uint256",
          "name": "tokenId",
          "type": "uint256"
        }
      ],
      "name": "approve",
      "outputs": [],
      "stateMutability": "nonpayable",
      "type": "function"
    },
    {
      "inputs": [
        {
          "internalType": "address",
          "name": "owner",
          "type": "address"
        }
      ],
      "name": "balanceOf",
      "outputs": [
        {
          "internalType": "uint256",
          "name": "",
          "type": "uint256"
        }
      ],
      "stateMutability": "view",
      "type": "function"
    },
    {
      "inputs": [
        {
          "internalType": "uint256",
          "name": "_orderId",
          "type": "uint256"
        },
        {
          "internalType": "uint256",
          "name": "_proposalId",
          "type": "uint256"
        }
      ],
      "name": "closeOrder",
      "outputs": [],
      "stateMutability": "payable",
      "type": "function"
    },
    {
      "inputs": [
        {
          "internalType": "uint256",
          "name": "_nft",
          "type": "uint256"
        },
        {
          "internalType": "uint256",
          "name": "_price",
          "type": "uint256"
        }
      ],
      "name": "createOrder",
      "outputs": [
        {
          "internalType": "uint256",
          "name": "",
          "type": "uint256"
        }
      ],
      "stateMutability": "nonpayable",
      "type": "function"
    },
    {
      "inputs": [
        {
          "internalType": "uint256",
          "name": "_orderId",
          "type": "uint256"
        }
      ],
      "name": "createProposal",
      "outputs": [
        {
          "internalType": "uint256",
          "name": "",
          "type": "uint256"
        }
      ],
      "stateMutability": "payable",
      "type": "function"
    },
    {
      "inputs": [
        {
          "internalType": "uint256",
          "name": "tokenId",
          "type": "uint256"
        }
      ],
      "name": "getApproved",
      "outputs": [
        {
          "internalType": "address",
          "name": "",
          "type": "address"
        }
      ],
      "stateMutability": "view",
      "type": "function"
    },
    {
      "inputs": [
        {
          "internalType": "address",
          "name": "_account",
          "type": "address"
        }
      ],
      "name": "getUserNftsAmount",
      "outputs": [
        {
          "internalType": "uint256",
          "name": "",
          "type": "uint256"
        }
      ],
      "stateMutability": "view",
      "type": "function"
    },
    {
      "inputs": [
        {
          "internalType": "address",
          "name": "owner",
          "type": "address"
        },
        {
          "internalType": "address",
          "name": "operator",
          "type": "address"
        }
      ],
      "name": "isApprovedForAll",
      "outputs": [
        {
          "internalType": "bool",
          "name": "",
          "type": "bool"
        }
      ],
      "stateMutability": "view",
      "type": "function"
    },
    {
      "inputs": [],
      "name": "mint",
      "outputs": [],
      "stateMutability": "payable",
      "type": "function"
    },
    {
      "inputs": [],
      "name": "mintPrice",
      "outputs": [
        {
          "internalType": "uint256",
          "name": "",
          "type": "uint256"
        }
      ],
      "stateMutability": "view",
      "type": "function"
    },
    {
      "inputs": [],
      "name": "name",
      "outputs": [
        {
          "internalType": "string",
          "name": "",
          "type": "string"
        }
      ],
      "stateMutability": "view",
      "type": "function"
    },
    {
      "inputs": [
        {
          "internalType": "uint256",
          "name": "",
          "type": "uint256"
        }
      ],
      "name": "orders",
      "outputs": [
        {
          "internalType": "uint256",
          "name": "id",
          "type": "uint256"
        },
        {
          "internalType": "uint256",
          "name": "nft",
          "type": "uint256"
        },
        {
          "internalType": "uint256",
          "name": "price",
          "type": "uint256"
        },
        {
          "internalType": "bool",
          "name": "isClosed",
          "type": "bool"
        },
        {
          "internalType": "address",
          "name": "owner",
          "type": "address"
        }
      ],
      "stateMutability": "view",
      "type": "function"
    },
    {
      "inputs": [
        {
          "internalType": "uint256",
          "name": "tokenId",
          "type": "uint256"
        }
      ],
      "name": "ownerOf",
      "outputs": [
        {
          "internalType": "address",
          "name": "",
          "type": "address"
        }
      ],
      "stateMutability": "view",
      "type": "function"
    },
    {
      "inputs": [
        {
          "internalType": "uint256",
          "name": "",
          "type": "uint256"
        }
      ],
      "name": "proposals",
      "outputs": [
        {
          "internalType": "uint256",
          "name": "id",
          "type": "uint256"
        },
        {
          "internalType": "uint256",
          "name": "orderId",
          "type": "uint256"
        },
        {
          "internalType": "uint256",
          "name": "nft",
          "type": "uint256"
        },
        {
          "internalType": "uint256",
          "name": "price",
          "type": "uint256"
        },
        {
          "internalType": "bool",
          "name": "isClosed",
          "type": "bool"
        },
        {
          "internalType": "address",
          "name": "author",
          "type": "address"
        },
        {
          "internalType": "address",
          "name": "orderOwner",
          "type": "address"
        }
      ],
      "stateMutability": "view",
      "type": "function"
    },
    {
      "inputs": [
        {
          "internalType": "address",
          "name": "from",
          "type": "address"
        },
        {
          "internalType": "address",
          "name": "to",
          "type": "address"
        },
        {
          "internalType": "uint256",
          "name": "tokenId",
          "type": "uint256"
        }
      ],
      "name": "safeTransferFrom",
      "outputs": [],
      "stateMutability": "nonpayable",
      "type": "function"
    },
    {
      "inputs": [
        {
          "internalType": "address",
          "name": "from",
          "type": "address"
        },
        {
          "internalType": "address",
          "name": "to",
          "type": "address"
        },
        {
          "internalType": "uint256",
          "name": "tokenId",
          "type": "uint256"
        },
        {
          "internalType": "bytes",
          "name": "data",
          "type": "bytes"
        }
      ],
      "name": "safeTransferFrom",
      "outputs": [],
      "stateMutability": "nonpayable",
      "type": "function"
    },
    {
      "inputs": [
        {
          "internalType": "address",
          "name": "operator",
          "type": "address"
        },
        {
          "internalType": "bool",
          "name": "approved",
          "type": "bool"
        }
      ],
      "name": "setApprovalForAll",
      "outputs": [],
      "stateMutability": "nonpayable",
      "type": "function"
    },
    {
      "inputs": [
        {
          "internalType": "bytes4",
          "name": "interfaceId",
          "type": "bytes4"
        }
      ],
      "name": "supportsInterface",
      "outputs": [
        {
          "internalType": "bool",
          "name": "",
          "type": "bool"
        }
      ],
      "stateMutability": "view",
      "type": "function"
    },
    {
      "inputs": [],
      "name": "symbol",
      "outputs": [
        {
          "internalType": "string",
          "name": "",
          "type": "string"
        }
      ],
      "stateMutability": "view",
      "type": "function"
    },
    {
      "inputs": [
        {
          "internalType": "uint256",
          "name": "",
          "type": "uint256"
        }
      ],
      "name": "test",
      "outputs": [
        {
          "internalType": "uint256",
          "name": "",
          "type": "uint256"
        }
      ],
      "stateMutability": "view",
      "type": "function"
    },
    {
      "inputs": [
        {
          "internalType": "uint256",
          "name": "tokenId",
          "type": "uint256"
        }
      ],
      "name": "tokenURI",
      "outputs": [
        {
          "internalType": "string",
          "name": "",
          "type": "string"
        }
      ],
      "stateMutability": "view",
      "type": "function"
    },
    {
      "inputs": [],
      "name": "totalSupply",
      "outputs": [
        {
          "internalType": "uint256",
          "name": "",
          "type": "uint256"
        }
      ],
      "stateMutability": "view",
      "type": "function"
    },
    {
      "inputs": [
        {
          "internalType": "address",
          "name": "from",
          "type": "address"
        },
        {
          "internalType": "address",
          "name": "to",
          "type": "address"
        },
        {
          "internalType": "uint256",
          "name": "tokenId",
          "type": "uint256"
        }
      ],
      "name": "transferFrom",
      "outputs": [],
      "stateMutability": "nonpayable",
      "type": "function"
    },
    {
      "inputs": [
        {
          "internalType": "uint256",
          "name": "",
          "type": "uint256"
        }
      ],
      "name": "userOrders",
      "outputs": [
        {
          "internalType": "address",
          "name": "",
          "type": "address"
        }
      ],
      "stateMutability": "view",
      "type": "function"
    },
    {
      "inputs": [
        {
          "internalType": "uint256",
          "name": "",
          "type": "uint256"
        }
      ],
      "name": "userProposals",
      "outputs": [
        {
          "internalType": "address",
          "name": "",
          "type": "address"
        }
      ],
      "stateMutability": "view",
      "type": "function"
    },
    {
      "inputs": [],
      "name": "withdraw",
      "outputs": [],
      "stateMutability": "payable",
      "type": "function"
    },
    {
      "inputs": [
        {
          "internalType": "address",
          "name": "",
          "type": "address"
        }
      ],
      "name": "withdrawAllowance",
      "outputs": [
        {
          "internalType": "uint256",
          "name": "",
          "type": "uint256"
        }
      ],
      "stateMutability": "view",
      "type": "function"
    },
    {
      "stateMutability": "payable",
      "type": "receive"
    }
  ],
  "bytecode": "0x60a060405261271060809081525067016345785d8a00006007553480156200002657600080fd5b506040518060400160405280600581526020017f4d794e46540000000000000000000000000000000000000000000000000000008152506040518060400160405280600481526020017f4d4e4654000000000000000000000000000000000000000000000000000000008152508160009081620000a4919062000339565b508060019081620000b6919062000339565b50505062000420565b600081519050919050565b7f4e487b7100000000000000000000000000000000000000000000000000000000600052604160045260246000fd5b7f4e487b7100000000000000000000000000000000000000000000000000000000600052602260045260246000fd5b600060028204905060018216806200014157607f821691505b602082108103620001575762000156620000f9565b5b50919050565b60008190508160005260206000209050919050565b60006020601f8301049050919050565b600082821b905092915050565b600060088302620001c17fffffffffffffffffffffffffffffffffffffffffffffffffffffffffffffffff8262000182565b620001cd868362000182565b95508019841693508086168417925050509392505050565b6000819050919050565b6000819050919050565b60006200021a620002146200020e84620001e5565b620001ef565b620001e5565b9050919050565b6000819050919050565b6200023683620001f9565b6200024e620002458262000221565b8484546200018f565b825550505050565b600090565b6200026562000256565b620002728184846200022b565b505050565b5b818110156200029a576200028e6000826200025b565b60018101905062000278565b5050565b601f821115620002e957620002b3816200015d565b620002be8462000172565b81016020851015620002ce578190505b620002e6620002dd8562000172565b83018262000277565b50505b505050565b600082821c905092915050565b60006200030e60001984600802620002ee565b1980831691505092915050565b6000620003298383620002fb565b9150826002028217905092915050565b6200034482620000bf565b67ffffffffffffffff81111562000360576200035f620000ca565b5b6200036c825462000128565b620003798282856200029e565b600060209050601f831160018114620003b157600084156200039c578287015190505b620003a885826200031b565b86555062000418565b601f198416620003c1866200015d565b60005b82811015620003eb57848901518255600182019150602085019450602081019050620003c4565b868310156200040b578489015162000407601f891682620002fb565b8355505b6001600288020188555050505b505050505050565b60805161366762000443600039600081816109a90152610b9d01526136676000f3fe6080604052600436106101bb5760003560e01c80636352211e116100ec578063a22cb4651161008a578063c87b56dd11610064578063c87b56dd14610637578063d9a21c6114610674578063e985e9c5146106b1578063fe7441e7146106ee576101c2565b8063a22cb465146105a4578063a85c38ef146105cd578063b88d4fde1461060e576101c2565b806379109baa116100c657806379109baa146104e35780637c38cbfe1461052057806387f02b421461055d57806395d89b4114610579576101c2565b80636352211e1461043e5780636817c76c1461047b57806370a08231146104a6576101c2565b806323b872dd116101595780633ccfd60b116101335780633ccfd60b1461039e57806342842e0e146103a857806355fd0afa146103d15780635a43dc001461040e576101c2565b806323b872dd1461030d57806329e99f071461033657806332cb6b0c14610373576101c2565b8063081812fc11610195578063081812fc14610272578063095ea7b3146102af5780631249c58b146102d857806318160ddd146102e2576101c2565b8063013cf08b146101c757806301ffc9a71461020a57806306fdde0314610247576101c2565b366101c257005b600080fd5b3480156101d357600080fd5b506101ee60048036038101906101e9919061297a565b61072b565b6040516102019796959493929190612a12565b60405180910390f35b34801561021657600080fd5b50610231600480360381019061022c9190612ad9565b6107ba565b60405161023e9190612b06565b60405180910390f35b34801561025357600080fd5b5061025c61089c565b6040516102699190612bb1565b60405180910390f35b34801561027e57600080fd5b506102996004803603810190610294919061297a565b61092e565b6040516102a69190612bd3565b60405180910390f35b3480156102bb57600080fd5b506102d660048036038101906102d19190612c1a565b61094a565b005b6102e0610960565b005b3480156102ee57600080fd5b506102f7610a6f565b6040516103049190612c5a565b60405180910390f35b34801561031957600080fd5b50610334600480360381019061032f9190612c75565b610a75565b005b34801561034257600080fd5b5061035d6004803603810190610358919061297a565b610b77565b60405161036a9190612c5a565b60405180910390f35b34801561037f57600080fd5b50610388610b9b565b6040516103959190612c5a565b60405180910390f35b6103a6610bbf565b005b3480156103b457600080fd5b506103cf60048036038101906103ca9190612c75565b610d14565b005b3480156103dd57600080fd5b506103f860048036038101906103f3919061297a565b610d34565b6040516104059190612bd3565b60405180910390f35b6104286004803603810190610423919061297a565b610d67565b6040516104359190612c5a565b60405180910390f35b34801561044a57600080fd5b506104656004803603810190610460919061297a565b61116a565b6040516104729190612bd3565b60405180910390f35b34801561048757600080fd5b5061049061117c565b60405161049d9190612c5a565b60405180910390f35b3480156104b257600080fd5b506104cd60048036038101906104c89190612cc8565b611182565b6040516104da9190612c5a565b60405180910390f35b3480156104ef57600080fd5b5061050a60048036038101906105059190612cf5565b61123c565b6040516105179190612c5a565b60405180910390f35b34801561052c57600080fd5b5061054760048036038101906105429190612cc8565b61149f565b6040516105549190612c5a565b60405180910390f35b61057760048036038101906105729190612cf5565b6114b1565b005b34801561058557600080fd5b5061058e61179b565b60405161059b9190612bb1565b60405180910390f35b3480156105b057600080fd5b506105cb60048036038101906105c69190612d61565b61182d565b005b3480156105d957600080fd5b506105f460048036038101906105ef919061297a565b611843565b604051610605959493929190612da1565b60405180910390f35b34801561061a57600080fd5b5061063560048036038101906106309190612f29565b6118a6565b005b34801561064357600080fd5b5061065e6004803603810190610659919061297a565b6118c3565b60405161066b9190612bb1565b60405180910390f35b34801561068057600080fd5b5061069b6004803603810190610696919061297a565b61192c565b6040516106a89190612bd3565b60405180910390f35b3480156106bd57600080fd5b506106d860048036038101906106d39190612fac565b61195f565b6040516106e59190612b06565b60405180910390f35b3480156106fa57600080fd5b5061071560048036038101906107109190612cc8565b6119f3565b6040516107229190612c5a565b60405180910390f35b600a6020528060005260406000206000915090508060000154908060010154908060020154908060030154908060040160009054906101000a900460ff16908060040160019054906101000a900473ffffffffffffffffffffffffffffffffffffffff16908060050160009054906101000a900473ffffffffffffffffffffffffffffffffffffffff16905087565b60007f80ac58cd000000000000000000000000000000000000000000000000000000007bffffffffffffffffffffffffffffffffffffffffffffffffffffffff1916827bffffffffffffffffffffffffffffffffffffffffffffffffffffffff1916148061088557507f5b5e139f000000000000000000000000000000000000000000000000000000007bffffffffffffffffffffffffffffffffffffffffffffffffffffffff1916827bffffffffffffffffffffffffffffffffffffffffffffffffffffffff1916145b80610895575061089482611a0b565b5b9050919050565b6060600080546108ab9061301b565b80601f01602080910402602001604051908101604052809291908181526020018280546108d79061301b565b80156109245780601f106108f957610100808354040283529160200191610924565b820191906000526020600020905b81548152906001019060200180831161090757829003601f168201915b5050505050905090565b600061093982611a75565b5061094382611afd565b9050919050565b61095c8282610957611b3a565b611b42565b5050565b60075434146109a4576040517f08c379a000000000000000000000000000000000000000000000000000000000815260040161099b90613098565b60405180910390fd5b6006547f000000000000000000000000000000000000000000000000000000000000000011610a08576040517f08c379a00000000000000000000000000000000000000000000000000000000081526004016109ff90613104565b60405180910390fd5b60066000815480929190610a1b90613153565b919050555060006006549050610a313382611b54565b7f4c209b5fc8ad50758f13e2e1088ba56a560dff690a1c6fef26394f4c03821c4f338242604051610a649392919061319b565b60405180910390a150565b60065481565b600073ffffffffffffffffffffffffffffffffffffffff168273ffffffffffffffffffffffffffffffffffffffff1603610ae75760006040517f64a0ae92000000000000000000000000000000000000000000000000000000008152600401610ade9190612bd3565b60405180910390fd5b6000610afb8383610af6611b3a565b611b72565b90508373ffffffffffffffffffffffffffffffffffffffff168173ffffffffffffffffffffffffffffffffffffffff1614610b71578382826040517f64283d7b000000000000000000000000000000000000000000000000000000008152600401610b68939291906131d2565b60405180910390fd5b50505050565b60088181548110610b8757600080fd5b906000526020600020016000915090505481565b7f000000000000000000000000000000000000000000000000000000000000000081565b6000600d60003373ffffffffffffffffffffffffffffffffffffffff1673ffffffffffffffffffffffffffffffffffffffff1681526020019081526020016000205411610c41576040517f08c379a0000000000000000000000000000000000000000000000000000000008152600401610c3890613255565b60405180910390fd5b6000600d60003373ffffffffffffffffffffffffffffffffffffffff1673ffffffffffffffffffffffffffffffffffffffff1681526020019081526020016000205490506000600d60003373ffffffffffffffffffffffffffffffffffffffff1673ffffffffffffffffffffffffffffffffffffffff168152602001908152602001600020819055503373ffffffffffffffffffffffffffffffffffffffff166108fc829081150290604051600060405180830381858888f19350505050158015610d10573d6000803e3d6000fd5b5050565b610d2f838383604051806020016040528060008152506118a6565b505050565b600b6020528060005260406000206000915054906101000a900473ffffffffffffffffffffffffffffffffffffffff1681565b6000600754341015610dae576040517f08c379a0000000000000000000000000000000000000000000000000000000008152600401610da590613098565b60405180910390fd5b60003090508073ffffffffffffffffffffffffffffffffffffffff166108fc349081150290604051600060405180830381858888f19350505050158015610df9573d6000803e3d6000fd5b5034600d60003373ffffffffffffffffffffffffffffffffffffffff1673ffffffffffffffffffffffffffffffffffffffff168152602001908152602001600020819055506000600960008581526020019081526020016000206040518060a00160405290816000820154815260200160018201548152602001600282015481526020016003820160009054906101000a900460ff161515151581526020016003820160019054906101000a900473ffffffffffffffffffffffffffffffffffffffff1673ffffffffffffffffffffffffffffffffffffffff1673ffffffffffffffffffffffffffffffffffffffff16815250509050600033826020015134604051602001610f0a939291906132de565b6040516020818303038152906040528051906020012060001c905060006040518060e00160405280838152602001878152602001846020015181526020013481526020016000151581526020013373ffffffffffffffffffffffffffffffffffffffff168152602001846080015173ffffffffffffffffffffffffffffffffffffffff16815250905080600a60008481526020019081526020016000206000820151816000015560208201518160010155604082015181600201556060820151816003015560808201518160040160006101000a81548160ff02191690831515021790555060a08201518160040160016101000a81548173ffffffffffffffffffffffffffffffffffffffff021916908373ffffffffffffffffffffffffffffffffffffffff16021790555060c08201518160050160006101000a81548173ffffffffffffffffffffffffffffffffffffffff021916908373ffffffffffffffffffffffffffffffffffffffff1602179055509050508260800151600c600084815260200190815260200160002060006101000a81548173ffffffffffffffffffffffffffffffffffffffff021916908373ffffffffffffffffffffffffffffffffffffffff16021790555060088290806001815401808255809150506001900390600052602060002001600090919091909150557fc7c0edbc4d6d43ece329407e2a7b1fb938c4e0fe6f5036b467b692f43b13b9ac816000015182602001518360400151846060015185608001518660a001518760c001516040516111569796959493929190612a12565b60405180910390a181945050505050919050565b600061117582611a75565b9050919050565b60075481565b60008073ffffffffffffffffffffffffffffffffffffffff168273ffffffffffffffffffffffffffffffffffffffff16036111f55760006040517f89c62b640000000000000000000000000000000000000000000000000000000081526004016111ec9190612bd3565b60405180910390fd5b600360008373ffffffffffffffffffffffffffffffffffffffff1673ffffffffffffffffffffffffffffffffffffffff168152602001908152602001600020549050919050565b60003373ffffffffffffffffffffffffffffffffffffffff1661125e8461116a565b73ffffffffffffffffffffffffffffffffffffffff16146112b4576040517f08c379a00000000000000000000000000000000000000000000000000000000081526004016112ab90613367565b60405180910390fd5b60003384846040516020016112cb939291906132de565b6040516020818303038152906040528051906020012060001c905060006040518060a001604052808381526020018681526020018581526020016000151581526020013373ffffffffffffffffffffffffffffffffffffffff168152509050806009600084815260200190815260200160002060008201518160000155602082015181600101556040820151816002015560608201518160030160006101000a81548160ff02191690831515021790555060808201518160030160016101000a81548173ffffffffffffffffffffffffffffffffffffffff021916908373ffffffffffffffffffffffffffffffffffffffff16021790555090505033600b600084815260200190815260200160002060006101000a81548173ffffffffffffffffffffffffffffffffffffffff021916908373ffffffffffffffffffffffffffffffffffffffff16021790555060088290806001815401808255809150506001900390600052602060002001600090919091909150557f903faf9964d302ab8b455a76cb2e12ef75467cc85398e5c67dd8d2407da9a5948160000151826020015183604001518460600151856080015160405161148c959493929190612da1565b60405180910390a1819250505092915050565b60006114aa82611182565b9050919050565b3373ffffffffffffffffffffffffffffffffffffffff16600b600084815260200190815260200160002060009054906101000a900473ffffffffffffffffffffffffffffffffffffffff1673ffffffffffffffffffffffffffffffffffffffff1614611552576040517f08c379a0000000000000000000000000000000000000000000000000000000008152600401611549906133d3565b60405180910390fd5b6000600a60008381526020019081526020016000206040518060e0016040529081600082015481526020016001820154815260200160028201548152602001600382015481526020016004820160009054906101000a900460ff161515151581526020016004820160019054906101000a900473ffffffffffffffffffffffffffffffffffffffff1673ffffffffffffffffffffffffffffffffffffffff1673ffffffffffffffffffffffffffffffffffffffff1681526020016005820160009054906101000a900473ffffffffffffffffffffffffffffffffffffffff1673ffffffffffffffffffffffffffffffffffffffff1673ffffffffffffffffffffffffffffffffffffffff16815250509050828160200151146116a9576040517f08c379a00000000000000000000000000000000000000000000000000000000081526004016116a09061343f565b60405180910390fd5b600b600084815260200190815260200160002060006101000a81549073ffffffffffffffffffffffffffffffffffffffff021916905560096000848152602001908152602001600020600080820160009055600182016000905560028201600090556003820160006101000a81549060ff02191690556003820160016101000a81549073ffffffffffffffffffffffffffffffffffffffff0219169055505061175b338260a001518360400151611d8c565b7f016814bc84e7fcf63bddbbe1fa159e54dda9b63f6f9ee1f73ce2f10a2e6c2a5d83834260405161178e9392919061345f565b60405180910390a1505050565b6060600180546117aa9061301b565b80601f01602080910402602001604051908101604052809291908181526020018280546117d69061301b565b80156118235780601f106117f857610100808354040283529160200191611823565b820191906000526020600020905b81548152906001019060200180831161180657829003601f168201915b5050505050905090565b61183f611838611b3a565b8383611dac565b5050565b60096020528060005260406000206000915090508060000154908060010154908060020154908060030160009054906101000a900460ff16908060030160019054906101000a900473ffffffffffffffffffffffffffffffffffffffff16905085565b6118b1848484610a75565b6118bd84848484611f1b565b50505050565b60606118ce82611a75565b5060006118d96120d2565b905060008151116118f95760405180602001604052806000815250611924565b80611903846120e9565b6040516020016119149291906134d2565b6040516020818303038152906040525b915050919050565b600c6020528060005260406000206000915054906101000a900473ffffffffffffffffffffffffffffffffffffffff1681565b6000600560008473ffffffffffffffffffffffffffffffffffffffff1673ffffffffffffffffffffffffffffffffffffffff16815260200190815260200160002060008373ffffffffffffffffffffffffffffffffffffffff1673ffffffffffffffffffffffffffffffffffffffff16815260200190815260200160002060009054906101000a900460ff16905092915050565b600d6020528060005260406000206000915090505481565b60007f01ffc9a7000000000000000000000000000000000000000000000000000000007bffffffffffffffffffffffffffffffffffffffffffffffffffffffff1916827bffffffffffffffffffffffffffffffffffffffffffffffffffffffff1916149050919050565b600080611a81836121b7565b9050600073ffffffffffffffffffffffffffffffffffffffff168173ffffffffffffffffffffffffffffffffffffffff1603611af457826040517f7e273289000000000000000000000000000000000000000000000000000000008152600401611aeb9190612c5a565b60405180910390fd5b80915050919050565b60006004600083815260200190815260200160002060009054906101000a900473ffffffffffffffffffffffffffffffffffffffff169050919050565b600033905090565b611b4f83838360016121f4565b505050565b611b6e8282604051806020016040528060008152506123b9565b5050565b600080611b7e846121b7565b9050600073ffffffffffffffffffffffffffffffffffffffff168373ffffffffffffffffffffffffffffffffffffffff1614611bc057611bbf8184866123d5565b5b600073ffffffffffffffffffffffffffffffffffffffff168173ffffffffffffffffffffffffffffffffffffffff1614611c5157611c026000856000806121f4565b6001600360008373ffffffffffffffffffffffffffffffffffffffff1673ffffffffffffffffffffffffffffffffffffffff168152602001908152602001600020600082825403925050819055505b600073ffffffffffffffffffffffffffffffffffffffff168573ffffffffffffffffffffffffffffffffffffffff1614611cd4576001600360008773ffffffffffffffffffffffffffffffffffffffff1673ffffffffffffffffffffffffffffffffffffffff168152602001908152602001600020600082825401925050819055505b846002600086815260200190815260200160002060006101000a81548173ffffffffffffffffffffffffffffffffffffffff021916908373ffffffffffffffffffffffffffffffffffffffff160217905550838573ffffffffffffffffffffffffffffffffffffffff168273ffffffffffffffffffffffffffffffffffffffff167fddf252ad1be2c89b69c2b068fc378daa952ba7f163c4a11628f55a4df523b3ef60405160405180910390a4809150509392505050565b611da783838360405180602001604052806000815250612499565b505050565b600073ffffffffffffffffffffffffffffffffffffffff168273ffffffffffffffffffffffffffffffffffffffff1603611e1d57816040517f5b08ba18000000000000000000000000000000000000000000000000000000008152600401611e149190612bd3565b60405180910390fd5b80600560008573ffffffffffffffffffffffffffffffffffffffff1673ffffffffffffffffffffffffffffffffffffffff16815260200190815260200160002060008473ffffffffffffffffffffffffffffffffffffffff1673ffffffffffffffffffffffffffffffffffffffff16815260200190815260200160002060006101000a81548160ff0219169083151502179055508173ffffffffffffffffffffffffffffffffffffffff168373ffffffffffffffffffffffffffffffffffffffff167f17307eab39ab6107e8899845ad3d59bd9653f200f220920489ca2b5937696c3183604051611f0e9190612b06565b60405180910390a3505050565b60008373ffffffffffffffffffffffffffffffffffffffff163b11156120cc578273ffffffffffffffffffffffffffffffffffffffff1663150b7a02611f5f611b3a565b8685856040518563ffffffff1660e01b8152600401611f81949392919061354b565b6020604051808303816000875af1925050508015611fbd57506040513d601f19601f82011682018060405250810190611fba91906135ac565b60015b612041573d8060008114611fed576040519150601f19603f3d011682016040523d82523d6000602084013e611ff2565b606091505b50600081510361203957836040517f64a0ae920000000000000000000000000000000000000000000000000000000081526004016120309190612bd3565b60405180910390fd5b805181602001fd5b63150b7a0260e01b7bffffffffffffffffffffffffffffffffffffffffffffffffffffffff1916817bffffffffffffffffffffffffffffffffffffffffffffffffffffffff1916146120ca57836040517f64a0ae920000000000000000000000000000000000000000000000000000000081526004016120c19190612bd3565b60405180910390fd5b505b50505050565b606060405180602001604052806000815250905090565b6060600060016120f8846124b6565b01905060008167ffffffffffffffff81111561211757612116612dfe565b5b6040519080825280601f01601f1916602001820160405280156121495781602001600182028036833780820191505090505b509050600082602001820190505b6001156121ac578080600190039150507f3031323334353637383961626364656600000000000000000000000000000000600a86061a8153600a85816121a05761219f6135d9565b5b04945060008503612157575b819350505050919050565b60006002600083815260200190815260200160002060009054906101000a900473ffffffffffffffffffffffffffffffffffffffff169050919050565b808061222d5750600073ffffffffffffffffffffffffffffffffffffffff168273ffffffffffffffffffffffffffffffffffffffff1614155b1561236157600061223d84611a75565b9050600073ffffffffffffffffffffffffffffffffffffffff168373ffffffffffffffffffffffffffffffffffffffff16141580156122a857508273ffffffffffffffffffffffffffffffffffffffff168173ffffffffffffffffffffffffffffffffffffffff1614155b80156122bb57506122b9818461195f565b155b156122fd57826040517fa9fbf51f0000000000000000000000000000000000000000000000000000000081526004016122f49190612bd3565b60405180910390fd5b811561235f57838573ffffffffffffffffffffffffffffffffffffffff168273ffffffffffffffffffffffffffffffffffffffff167f8c5be1e5ebec7d5bd14f71427d1e84f3dd0314c0f7b2291e5b200ac8c7c3b92560405160405180910390a45b505b836004600085815260200190815260200160002060006101000a81548173ffffffffffffffffffffffffffffffffffffffff021916908373ffffffffffffffffffffffffffffffffffffffff16021790555050505050565b6123c38383612609565b6123d06000848484611f1b565b505050565b6123e0838383612702565b61249457600073ffffffffffffffffffffffffffffffffffffffff168373ffffffffffffffffffffffffffffffffffffffff160361245557806040517f7e27328900000000000000000000000000000000000000000000000000000000815260040161244c9190612c5a565b60405180910390fd5b81816040517f177e802f00000000000000000000000000000000000000000000000000000000815260040161248b929190613608565b60405180910390fd5b505050565b6124a48484846127c3565b6124b084848484611f1b565b50505050565b600080600090507a184f03e93ff9f4daa797ed6e38ed64bf6a1f0100000000000000008310612514577a184f03e93ff9f4daa797ed6e38ed64bf6a1f010000000000000000838161250a576125096135d9565b5b0492506040810190505b6d04ee2d6d415b85acef81000000008310612551576d04ee2d6d415b85acef81000000008381612547576125466135d9565b5b0492506020810190505b662386f26fc10000831061258057662386f26fc100008381612576576125756135d9565b5b0492506010810190505b6305f5e10083106125a9576305f5e100838161259f5761259e6135d9565b5b0492506008810190505b61271083106125ce5761271083816125c4576125c36135d9565b5b0492506004810190505b606483106125f157606483816125e7576125e66135d9565b5b0492506002810190505b600a8310612600576001810190505b80915050919050565b600073ffffffffffffffffffffffffffffffffffffffff168273ffffffffffffffffffffffffffffffffffffffff160361267b5760006040517f64a0ae920000000000000000000000000000000000000000000000000000000081526004016126729190612bd3565b60405180910390fd5b600061268983836000611b72565b9050600073ffffffffffffffffffffffffffffffffffffffff168173ffffffffffffffffffffffffffffffffffffffff16146126fd5760006040517f73c6ac6e0000000000000000000000000000000000000000000000000000000081526004016126f49190612bd3565b60405180910390fd5b505050565b60008073ffffffffffffffffffffffffffffffffffffffff168373ffffffffffffffffffffffffffffffffffffffff16141580156127ba57508273ffffffffffffffffffffffffffffffffffffffff168473ffffffffffffffffffffffffffffffffffffffff16148061277b575061277a848461195f565b5b806127b957508273ffffffffffffffffffffffffffffffffffffffff166127a183611afd565b73ffffffffffffffffffffffffffffffffffffffff16145b5b90509392505050565b600073ffffffffffffffffffffffffffffffffffffffff168273ffffffffffffffffffffffffffffffffffffffff16036128355760006040517f64a0ae9200000000000000000000000000000000000000000000000000000000815260040161282c9190612bd3565b60405180910390fd5b600061284383836000611b72565b9050600073ffffffffffffffffffffffffffffffffffffffff168173ffffffffffffffffffffffffffffffffffffffff16036128b657816040517f7e2732890000000000000000000000000000000000000000000000000000000081526004016128ad9190612c5a565b60405180910390fd5b8373ffffffffffffffffffffffffffffffffffffffff168173ffffffffffffffffffffffffffffffffffffffff161461292a578382826040517f64283d7b000000000000000000000000000000000000000000000000000000008152600401612921939291906131d2565b60405180910390fd5b50505050565b6000604051905090565b600080fd5b600080fd5b6000819050919050565b61295781612944565b811461296257600080fd5b50565b6000813590506129748161294e565b92915050565b6000602082840312156129905761298f61293a565b5b600061299e84828501612965565b91505092915050565b6129b081612944565b82525050565b60008115159050919050565b6129cb816129b6565b82525050565b600073ffffffffffffffffffffffffffffffffffffffff82169050919050565b60006129fc826129d1565b9050919050565b612a0c816129f1565b82525050565b600060e082019050612a27600083018a6129a7565b612a3460208301896129a7565b612a4160408301886129a7565b612a4e60608301876129a7565b612a5b60808301866129c2565b612a6860a0830185612a03565b612a7560c0830184612a03565b98975050505050505050565b60007fffffffff0000000000000000000000000000000000000000000000000000000082169050919050565b612ab681612a81565b8114612ac157600080fd5b50565b600081359050612ad381612aad565b92915050565b600060208284031215612aef57612aee61293a565b5b6000612afd84828501612ac4565b91505092915050565b6000602082019050612b1b60008301846129c2565b92915050565b600081519050919050565b600082825260208201905092915050565b60005b83811015612b5b578082015181840152602081019050612b40565b60008484015250505050565b6000601f19601f8301169050919050565b6000612b8382612b21565b612b8d8185612b2c565b9350612b9d818560208601612b3d565b612ba681612b67565b840191505092915050565b60006020820190508181036000830152612bcb8184612b78565b905092915050565b6000602082019050612be86000830184612a03565b92915050565b612bf7816129f1565b8114612c0257600080fd5b50565b600081359050612c1481612bee565b92915050565b60008060408385031215612c3157612c3061293a565b5b6000612c3f85828601612c05565b9250506020612c5085828601612965565b9150509250929050565b6000602082019050612c6f60008301846129a7565b92915050565b600080600060608486031215612c8e57612c8d61293a565b5b6000612c9c86828701612c05565b9350506020612cad86828701612c05565b9250506040612cbe86828701612965565b9150509250925092565b600060208284031215612cde57612cdd61293a565b5b6000612cec84828501612c05565b91505092915050565b60008060408385031215612d0c57612d0b61293a565b5b6000612d1a85828601612965565b9250506020612d2b85828601612965565b9150509250929050565b612d3e816129b6565b8114612d4957600080fd5b50565b600081359050612d5b81612d35565b92915050565b60008060408385031215612d7857612d7761293a565b5b6000612d8685828601612c05565b9250506020612d9785828601612d4c565b9150509250929050565b600060a082019050612db660008301886129a7565b612dc360208301876129a7565b612dd060408301866129a7565b612ddd60608301856129c2565b612dea6080830184612a03565b9695505050505050565b600080fd5b600080fd5b7f4e487b7100000000000000000000000000000000000000000000000000000000600052604160045260246000fd5b612e3682612b67565b810181811067ffffffffffffffff82111715612e5557612e54612dfe565b5b80604052505050565b6000612e68612930565b9050612e748282612e2d565b919050565b600067ffffffffffffffff821115612e9457612e93612dfe565b5b612e9d82612b67565b9050602081019050919050565b82818337600083830152505050565b6000612ecc612ec784612e79565b612e5e565b905082815260208101848484011115612ee857612ee7612df9565b5b612ef3848285612eaa565b509392505050565b600082601f830112612f1057612f0f612df4565b5b8135612f20848260208601612eb9565b91505092915050565b60008060008060808587031215612f4357612f4261293a565b5b6000612f5187828801612c05565b9450506020612f6287828801612c05565b9350506040612f7387828801612965565b925050606085013567ffffffffffffffff811115612f9457612f9361293f565b5b612fa087828801612efb565b91505092959194509250565b60008060408385031215612fc357612fc261293a565b5b6000612fd185828601612c05565b9250506020612fe285828601612c05565b9150509250929050565b7f4e487b7100000000000000000000000000000000000000000000000000000000600052602260045260246000fd5b6000600282049050600182168061303357607f821691505b60208210810361304657613045612fec565b5b50919050565b7f57726f6e672076616c7565000000000000000000000000000000000000000000600082015250565b6000613082600b83612b2c565b915061308d8261304c565b602082019050919050565b600060208201905081810360008301526130b181613075565b9050919050565b7f536f6c64206f7574000000000000000000000000000000000000000000000000600082015250565b60006130ee600883612b2c565b91506130f9826130b8565b602082019050919050565b6000602082019050818103600083015261311d816130e1565b9050919050565b7f4e487b7100000000000000000000000000000000000000000000000000000000600052601160045260246000fd5b600061315e82612944565b91507fffffffffffffffffffffffffffffffffffffffffffffffffffffffffffffffff82036131905761318f613124565b5b600182019050919050565b60006060820190506131b06000830186612a03565b6131bd60208301856129a7565b6131ca60408301846129a7565b949350505050565b60006060820190506131e76000830186612a03565b6131f460208301856129a7565b6132016040830184612a03565b949350505050565b7f496e73756666696369656e742062616c616e6365000000000000000000000000600082015250565b600061323f601483612b2c565b915061324a82613209565b602082019050919050565b6000602082019050818103600083015261326e81613232565b9050919050565b60008160601b9050919050565b600061328d82613275565b9050919050565b600061329f82613282565b9050919050565b6132b76132b2826129f1565b613294565b82525050565b6000819050919050565b6132d86132d382612944565b6132bd565b82525050565b60006132ea82866132a6565b6014820191506132fa82856132c7565b60208201915061330a82846132c7565b602082019150819050949350505050565b7f4e6f74206f776e65720000000000000000000000000000000000000000000000600082015250565b6000613351600983612b2c565b915061335c8261331b565b602082019050919050565b6000602082019050818103600083015261338081613344565b9050919050565b7f4e6f7420746865206f72646572206f776e657200000000000000000000000000600082015250565b60006133bd601383612b2c565b91506133c882613387565b602082019050919050565b600060208201905081810360008301526133ec816133b0565b9050919050565b7f57726f6e672070726f706f73616c206964000000000000000000000000000000600082015250565b6000613429601183612b2c565b9150613434826133f3565b602082019050919050565b600060208201905081810360008301526134588161341c565b9050919050565b600060608201905061347460008301866129a7565b61348160208301856129a7565b61348e60408301846129a7565b949350505050565b600081905092915050565b60006134ac82612b21565b6134b68185613496565b93506134c6818560208601612b3d565b80840191505092915050565b60006134de82856134a1565b91506134ea82846134a1565b91508190509392505050565b600081519050919050565b600082825260208201905092915050565b600061351d826134f6565b6135278185613501565b9350613537818560208601612b3d565b61354081612b67565b840191505092915050565b60006080820190506135606000830187612a03565b61356d6020830186612a03565b61357a60408301856129a7565b818103606083015261358c8184613512565b905095945050505050565b6000815190506135a681612aad565b92915050565b6000602082840312156135c2576135c161293a565b5b60006135d084828501613597565b91505092915050565b7f4e487b7100000000000000000000000000000000000000000000000000000000600052601260045260246000fd5b600060408201905061361d6000830185612a03565b61362a60208301846129a7565b939250505056fea264697066735822122029025758f2e0004950b75baa1ead9d8596a88060470b9baf7280c810328a438b64736f6c63430008140033",
  "linkReferences": {},
  "deployedLinkReferences": {}
}