{
  "address": "0x15F2ea83eB97ede71d84Bd04fFF29444f6b7cd52",
  "abi": [
    {
      "inputs": [],
      "stateMutability": "nonpayable",
      "type": "constructor"
    },
    {
      "inputs": [
        {
          "internalType": "address",
          "name": "sender",
          "type": "address"
        },
        {
          "internalType": "uint256",
          "name": "tokenId",
          "type": "uint256"
        },
        {
          "internalType": "address",
          "name": "owner",
          "type": "address"
        }
      ],
      "name": "ERC721IncorrectOwner",
      "type": "error"
    },
    {
      "inputs": [
        {
          "internalType": "address",
          "name": "operator",
          "type": "address"
        },
        {
          "internalType": "uint256",
          "name": "tokenId",
          "type": "uint256"
        }
      ],
      "name": "ERC721InsufficientApproval",
      "type": "error"
    },
    {
      "inputs": [
        {
          "internalType": "address",
          "name": "approver",
          "type": "address"
        }
      ],
      "name": "ERC721InvalidApprover",
      "type": "error"
    },
    {
      "inputs": [
        {
          "internalType": "address",
          "name": "operator",
          "type": "address"
        }
      ],
      "name": "ERC721InvalidOperator",
      "type": "error"
    },
    {
      "inputs": [
        {
          "internalType": "address",
          "name": "owner",
          "type": "address"
        }
      ],
      "name": "ERC721InvalidOwner",
      "type": "error"
    },
    {
      "inputs": [
        {
          "internalType": "address",
          "name": "receiver",
          "type": "address"
        }
      ],
      "name": "ERC721InvalidReceiver",
      "type": "error"
    },
    {
      "inputs": [
        {
          "internalType": "address",
          "name": "sender",
          "type": "address"
        }
      ],
      "name": "ERC721InvalidSender",
      "type": "error"
    },
    {
      "inputs": [
        {
          "internalType": "uint256",
          "name": "tokenId",
          "type": "uint256"
        }
      ],
      "name": "ERC721NonexistentToken",
      "type": "error"
    },
    {
      "anonymous": false,
      "inputs": [
        {
          "indexed": true,
          "internalType": "address",
          "name": "owner",
          "type": "address"
        },
        {
          "indexed": true,
          "internalType": "address",
          "name": "approved",
          "type": "address"
        },
        {
          "indexed": true,
          "internalType": "uint256",
          "name": "tokenId",
          "type": "uint256"
        }
      ],
      "name": "Approval",
      "type": "event"
    },
    {
      "anonymous": false,
      "inputs": [
        {
          "indexed": true,
          "internalType": "address",
          "name": "owner",
          "type": "address"
        },
        {
          "indexed": true,
          "internalType": "address",
          "name": "operator",
          "type": "address"
        },
        {
          "indexed": false,
          "internalType": "bool",
          "name": "approved",
          "type": "bool"
        }
      ],
      "name": "ApprovalForAll",
      "type": "event"
    },
    {
      "anonymous": false,
      "inputs": [
        {
          "indexed": false,
          "internalType": "address",
          "name": "user",
          "type": "address"
        },
        {
          "indexed": false,
          "internalType": "uint256",
          "name": "nft",
          "type": "uint256"
        },
        {
          "indexed": false,
          "internalType": "uint256",
          "name": "time",
          "type": "uint256"
        }
      ],
      "name": "Mint",
      "type": "event"
    },
    {
      "anonymous": false,
      "inputs": [
        {
          "indexed": false,
          "internalType": "uint256",
          "name": "orderId",
          "type": "uint256"
        },
        {
          "indexed": false,
          "internalType": "uint256",
          "name": "proposalId",
          "type": "uint256"
        },
        {
          "indexed": false,
          "internalType": "uint256",
          "name": "time",
          "type": "uint256"
        }
      ],
      "name": "OrderClosed",
      "type": "event"
    },
    {
      "anonymous": false,
      "inputs": [
        {
          "indexed": false,
          "internalType": "address",
          "name": "user",
          "type": "address"
        },
        {
          "indexed": false,
          "internalType": "uint256",
          "name": "nft",
          "type": "uint256"
        },
        {
          "indexed": false,
          "internalType": "uint256",
          "name": "price",
          "type": "uint256"
        },
        {
          "indexed": false,
          "internalType": "uint256",
          "name": "time",
          "type": "uint256"
        }
      ],
      "name": "OrderPlaced",
      "type": "event"
    },
    {
      "anonymous": false,
      "inputs": [
        {
          "indexed": false,
          "internalType": "address",
          "name": "user",
          "type": "address"
        },
        {
          "indexed": false,
          "internalType": "uint256",
          "name": "orderId",
          "type": "uint256"
        },
        {
          "indexed": false,
          "internalType": "uint256",
          "name": "price",
          "type": "uint256"
        },
        {
          "indexed": false,
          "internalType": "uint256",
          "name": "time",
          "type": "uint256"
        }
      ],
      "name": "ProposalPlaced",
      "type": "event"
    },
    {
      "anonymous": false,
      "inputs": [
        {
          "indexed": true,
          "internalType": "address",
          "name": "from",
          "type": "address"
        },
        {
          "indexed": true,
          "internalType": "address",
          "name": "to",
          "type": "address"
        },
        {
          "indexed": true,
          "internalType": "uint256",
          "name": "tokenId",
          "type": "uint256"
        }
      ],
      "name": "Transfer",
      "type": "event"
    },
    {
      "inputs": [],
      "name": "MAX_SUPPLY",
      "outputs": [
        {
          "internalType": "uint256",
          "name": "",
          "type": "uint256"
        }
      ],
      "stateMutability": "view",
      "type": "function"
    },
    {
      "inputs": [
        {
          "internalType": "address",
          "name": "to",
          "type": "address"
        },
        {
          "internalType": "uint256",
          "name": "tokenId",
          "type": "uint256"
        }
      ],
      "name": "approve",
      "outputs": [],
      "stateMutability": "nonpayable",
      "type": "function"
    },
    {
      "inputs": [
        {
          "internalType": "address",
          "name": "owner",
          "type": "address"
        }
      ],
      "name": "balanceOf",
      "outputs": [
        {
          "internalType": "uint256",
          "name": "",
          "type": "uint256"
        }
      ],
      "stateMutability": "view",
      "type": "function"
    },
    {
      "inputs": [
        {
          "internalType": "uint256",
          "name": "_orderId",
          "type": "uint256"
        },
        {
          "internalType": "uint256",
          "name": "_proposalId",
          "type": "uint256"
        }
      ],
      "name": "closeOrder",
      "outputs": [],
      "stateMutability": "payable",
      "type": "function"
    },
    {
      "inputs": [
        {
          "internalType": "uint256",
          "name": "_nft",
          "type": "uint256"
        },
        {
          "internalType": "uint256",
          "name": "_price",
          "type": "uint256"
        }
      ],
      "name": "createOrder",
      "outputs": [
        {
          "internalType": "uint256",
          "name": "",
          "type": "uint256"
        }
      ],
      "stateMutability": "nonpayable",
      "type": "function"
    },
    {
      "inputs": [
        {
          "internalType": "uint256",
          "name": "_orderId",
          "type": "uint256"
        }
      ],
      "name": "createProposal",
      "outputs": [
        {
          "internalType": "uint256",
          "name": "",
          "type": "uint256"
        }
      ],
      "stateMutability": "payable",
      "type": "function"
    },
    {
      "inputs": [
        {
          "internalType": "uint256",
          "name": "tokenId",
          "type": "uint256"
        }
      ],
      "name": "getApproved",
      "outputs": [
        {
          "internalType": "address",
          "name": "",
          "type": "address"
        }
      ],
      "stateMutability": "view",
      "type": "function"
    },
    {
      "inputs": [
        {
          "internalType": "address",
          "name": "_account",
          "type": "address"
        }
      ],
      "name": "getUserNftsAmount",
      "outputs": [
        {
          "internalType": "uint256",
          "name": "",
          "type": "uint256"
        }
      ],
      "stateMutability": "view",
      "type": "function"
    },
    {
      "inputs": [
        {
          "internalType": "address",
          "name": "owner",
          "type": "address"
        },
        {
          "internalType": "address",
          "name": "operator",
          "type": "address"
        }
      ],
      "name": "isApprovedForAll",
      "outputs": [
        {
          "internalType": "bool",
          "name": "",
          "type": "bool"
        }
      ],
      "stateMutability": "view",
      "type": "function"
    },
    {
      "inputs": [],
      "name": "mint",
      "outputs": [],
      "stateMutability": "payable",
      "type": "function"
    },
    {
      "inputs": [],
      "name": "mintPrice",
      "outputs": [
        {
          "internalType": "uint256",
          "name": "",
          "type": "uint256"
        }
      ],
      "stateMutability": "view",
      "type": "function"
    },
    {
      "inputs": [],
      "name": "name",
      "outputs": [
        {
          "internalType": "string",
          "name": "",
          "type": "string"
        }
      ],
      "stateMutability": "view",
      "type": "function"
    },
    {
      "inputs": [
        {
          "internalType": "uint256",
          "name": "",
          "type": "uint256"
        }
      ],
      "name": "orders",
      "outputs": [
        {
          "internalType": "address",
          "name": "owner",
          "type": "address"
        },
        {
          "internalType": "uint256",
          "name": "nft",
          "type": "uint256"
        },
        {
          "internalType": "uint256",
          "name": "price",
          "type": "uint256"
        }
      ],
      "stateMutability": "view",
      "type": "function"
    },
    {
      "inputs": [
        {
          "internalType": "uint256",
          "name": "tokenId",
          "type": "uint256"
        }
      ],
      "name": "ownerOf",
      "outputs": [
        {
          "internalType": "address",
          "name": "",
          "type": "address"
        }
      ],
      "stateMutability": "view",
      "type": "function"
    },
    {
      "inputs": [
        {
          "internalType": "uint256",
          "name": "",
          "type": "uint256"
        }
      ],
      "name": "proposals",
      "outputs": [
        {
          "internalType": "address",
          "name": "user",
          "type": "address"
        },
        {
          "internalType": "uint256",
          "name": "orderId",
          "type": "uint256"
        },
        {
          "internalType": "uint256",
          "name": "nft",
          "type": "uint256"
        },
        {
          "internalType": "uint256",
          "name": "price",
          "type": "uint256"
        }
      ],
      "stateMutability": "view",
      "type": "function"
    },
    {
      "inputs": [
        {
          "internalType": "address",
          "name": "from",
          "type": "address"
        },
        {
          "internalType": "address",
          "name": "to",
          "type": "address"
        },
        {
          "internalType": "uint256",
          "name": "tokenId",
          "type": "uint256"
        }
      ],
      "name": "safeTransferFrom",
      "outputs": [],
      "stateMutability": "nonpayable",
      "type": "function"
    },
    {
      "inputs": [
        {
          "internalType": "address",
          "name": "from",
          "type": "address"
        },
        {
          "internalType": "address",
          "name": "to",
          "type": "address"
        },
        {
          "internalType": "uint256",
          "name": "tokenId",
          "type": "uint256"
        },
        {
          "internalType": "bytes",
          "name": "data",
          "type": "bytes"
        }
      ],
      "name": "safeTransferFrom",
      "outputs": [],
      "stateMutability": "nonpayable",
      "type": "function"
    },
    {
      "inputs": [
        {
          "internalType": "address",
          "name": "operator",
          "type": "address"
        },
        {
          "internalType": "bool",
          "name": "approved",
          "type": "bool"
        }
      ],
      "name": "setApprovalForAll",
      "outputs": [],
      "stateMutability": "nonpayable",
      "type": "function"
    },
    {
      "inputs": [
        {
          "internalType": "bytes4",
          "name": "interfaceId",
          "type": "bytes4"
        }
      ],
      "name": "supportsInterface",
      "outputs": [
        {
          "internalType": "bool",
          "name": "",
          "type": "bool"
        }
      ],
      "stateMutability": "view",
      "type": "function"
    },
    {
      "inputs": [],
      "name": "symbol",
      "outputs": [
        {
          "internalType": "string",
          "name": "",
          "type": "string"
        }
      ],
      "stateMutability": "view",
      "type": "function"
    },
    {
      "inputs": [
        {
          "internalType": "uint256",
          "name": "",
          "type": "uint256"
        }
      ],
      "name": "test",
      "outputs": [
        {
          "internalType": "uint256",
          "name": "",
          "type": "uint256"
        }
      ],
      "stateMutability": "view",
      "type": "function"
    },
    {
      "inputs": [
        {
          "internalType": "uint256",
          "name": "tokenId",
          "type": "uint256"
        }
      ],
      "name": "tokenURI",
      "outputs": [
        {
          "internalType": "string",
          "name": "",
          "type": "string"
        }
      ],
      "stateMutability": "view",
      "type": "function"
    },
    {
      "inputs": [],
      "name": "totalSupply",
      "outputs": [
        {
          "internalType": "uint256",
          "name": "",
          "type": "uint256"
        }
      ],
      "stateMutability": "view",
      "type": "function"
    },
    {
      "inputs": [
        {
          "internalType": "address",
          "name": "from",
          "type": "address"
        },
        {
          "internalType": "address",
          "name": "to",
          "type": "address"
        },
        {
          "internalType": "uint256",
          "name": "tokenId",
          "type": "uint256"
        }
      ],
      "name": "transferFrom",
      "outputs": [],
      "stateMutability": "nonpayable",
      "type": "function"
    },
    {
      "inputs": [
        {
          "internalType": "uint256",
          "name": "",
          "type": "uint256"
        }
      ],
      "name": "userOrders",
      "outputs": [
        {
          "internalType": "address",
          "name": "",
          "type": "address"
        }
      ],
      "stateMutability": "view",
      "type": "function"
    },
    {
      "inputs": [
        {
          "internalType": "uint256",
          "name": "",
          "type": "uint256"
        }
      ],
      "name": "userProposals",
      "outputs": [
        {
          "internalType": "address",
          "name": "",
          "type": "address"
        }
      ],
      "stateMutability": "view",
      "type": "function"
    },
    {
      "inputs": [],
      "name": "withdraw",
      "outputs": [],
      "stateMutability": "payable",
      "type": "function"
    },
    {
      "inputs": [
        {
          "internalType": "address",
          "name": "",
          "type": "address"
        }
      ],
      "name": "withdrawAllowance",
      "outputs": [
        {
          "internalType": "uint256",
          "name": "",
          "type": "uint256"
        }
      ],
      "stateMutability": "view",
      "type": "function"
    },
    {
      "stateMutability": "payable",
      "type": "receive"
    }
  ],
  "transactionHash": "0xa6e266bc217fe7b265ffd4ed1f74546783b696531bf57cf5bd42f75081d506f9",
  "args": [],
  "numDeployments": 1,
  "solcInputHash": "4e9a5142e40c9b2646d5f99d63cc77e7",
  "bytecode": "0x60a060405261271060809081525067016345785d8a00006007553480156200002657600080fd5b506040518060400160405280600581526020017f4d794e46540000000000000000000000000000000000000000000000000000008152506040518060400160405280600481526020017f4d4e4654000000000000000000000000000000000000000000000000000000008152508160009081620000a4919062000339565b508060019081620000b6919062000339565b50505062000420565b600081519050919050565b7f4e487b7100000000000000000000000000000000000000000000000000000000600052604160045260246000fd5b7f4e487b7100000000000000000000000000000000000000000000000000000000600052602260045260246000fd5b600060028204905060018216806200014157607f821691505b602082108103620001575762000156620000f9565b5b50919050565b60008190508160005260206000209050919050565b60006020601f8301049050919050565b600082821b905092915050565b600060088302620001c17fffffffffffffffffffffffffffffffffffffffffffffffffffffffffffffffff8262000182565b620001cd868362000182565b95508019841693508086168417925050509392505050565b6000819050919050565b6000819050919050565b60006200021a620002146200020e84620001e5565b620001ef565b620001e5565b9050919050565b6000819050919050565b6200023683620001f9565b6200024e620002458262000221565b8484546200018f565b825550505050565b600090565b6200026562000256565b620002728184846200022b565b505050565b5b818110156200029a576200028e6000826200025b565b60018101905062000278565b5050565b601f821115620002e957620002b3816200015d565b620002be8462000172565b81016020851015620002ce578190505b620002e6620002dd8562000172565b83018262000277565b50505b505050565b600082821c905092915050565b60006200030e60001984600802620002ee565b1980831691505092915050565b6000620003298383620002fb565b9150826002028217905092915050565b6200034482620000bf565b67ffffffffffffffff81111562000360576200035f620000ca565b5b6200036c825462000128565b620003798282856200029e565b600060209050601f831160018114620003b157600084156200039c578287015190505b620003a885826200031b565b86555062000418565b601f198416620003c1866200015d565b60005b82811015620003eb57848901518255600182019150602085019450602081019050620003c4565b868310156200040b578489015162000407601f891682620002fb565b8355505b6001600288020188555050505b505050505050565b6080516133c062000443600039600081816109650152610b5901526133c06000f3fe6080604052600436106101bb5760003560e01c80636352211e116100ec578063a22cb4651161008a578063c87b56dd11610064578063c87b56dd14610632578063d9a21c611461066f578063e985e9c5146106ac578063fe7441e7146106e9576101c2565b8063a22cb465146105a1578063a85c38ef146105ca578063b88d4fde14610609576101c2565b806379109baa116100c657806379109baa146104e05780637c38cbfe1461051d57806387f02b421461055a57806395d89b4114610576576101c2565b80636352211e1461043b5780636817c76c1461047857806370a08231146104a3576101c2565b806323b872dd116101595780633ccfd60b116101335780633ccfd60b1461039b57806342842e0e146103a557806355fd0afa146103ce5780635a43dc001461040b576101c2565b806323b872dd1461030a57806329e99f071461033357806332cb6b0c14610370576101c2565b8063081812fc11610195578063081812fc1461026f578063095ea7b3146102ac5780631249c58b146102d557806318160ddd146102df576101c2565b8063013cf08b146101c757806301ffc9a71461020757806306fdde0314610244576101c2565b366101c257005b600080fd5b3480156101d357600080fd5b506101ee60048036038101906101e99190612750565b610726565b6040516101fe94939291906127cd565b60405180910390f35b34801561021357600080fd5b5061022e6004803603810190610229919061286a565b610776565b60405161023b91906128b2565b60405180910390f35b34801561025057600080fd5b50610259610858565b604051610266919061295d565b60405180910390f35b34801561027b57600080fd5b5061029660048036038101906102919190612750565b6108ea565b6040516102a3919061297f565b60405180910390f35b3480156102b857600080fd5b506102d360048036038101906102ce91906129c6565b610906565b005b6102dd61091c565b005b3480156102eb57600080fd5b506102f4610a2b565b6040516103019190612a06565b60405180910390f35b34801561031657600080fd5b50610331600480360381019061032c9190612a21565b610a31565b005b34801561033f57600080fd5b5061035a60048036038101906103559190612750565b610b33565b6040516103679190612a06565b60405180910390f35b34801561037c57600080fd5b50610385610b57565b6040516103929190612a06565b60405180910390f35b6103a3610b7b565b005b3480156103b157600080fd5b506103cc60048036038101906103c79190612a21565b610cd0565b005b3480156103da57600080fd5b506103f560048036038101906103f09190612750565b610cf0565b604051610402919061297f565b60405180910390f35b61042560048036038101906104209190612750565b610d23565b6040516104329190612a06565b60405180910390f35b34801561044757600080fd5b50610462600480360381019061045d9190612750565b61103f565b60405161046f919061297f565b60405180910390f35b34801561048457600080fd5b5061048d611051565b60405161049a9190612a06565b60405180910390f35b3480156104af57600080fd5b506104ca60048036038101906104c59190612a74565b611057565b6040516104d79190612a06565b60405180910390f35b3480156104ec57600080fd5b5061050760048036038101906105029190612aa1565b611111565b6040516105149190612a06565b60405180910390f35b34801561052957600080fd5b50610544600480360381019061053f9190612a74565b611325565b6040516105519190612a06565b60405180910390f35b610574600480360381019061056f9190612aa1565b611337565b005b34801561058257600080fd5b5061058b61158a565b604051610598919061295d565b60405180910390f35b3480156105ad57600080fd5b506105c860048036038101906105c39190612b0d565b61161c565b005b3480156105d657600080fd5b506105f160048036038101906105ec9190612750565b611632565b60405161060093929190612b4d565b60405180910390f35b34801561061557600080fd5b50610630600480360381019061062b9190612cb9565b61167c565b005b34801561063e57600080fd5b5061065960048036038101906106549190612750565b611699565b604051610666919061295d565b60405180910390f35b34801561067b57600080fd5b5061069660048036038101906106919190612750565b611702565b6040516106a3919061297f565b60405180910390f35b3480156106b857600080fd5b506106d360048036038101906106ce9190612d3c565b611735565b6040516106e091906128b2565b60405180910390f35b3480156106f557600080fd5b50610710600480360381019061070b9190612a74565b6117c9565b60405161071d9190612a06565b60405180910390f35b600a6020528060005260406000206000915090508060000160009054906101000a900473ffffffffffffffffffffffffffffffffffffffff16908060010154908060020154908060030154905084565b60007f80ac58cd000000000000000000000000000000000000000000000000000000007bffffffffffffffffffffffffffffffffffffffffffffffffffffffff1916827bffffffffffffffffffffffffffffffffffffffffffffffffffffffff1916148061084157507f5b5e139f000000000000000000000000000000000000000000000000000000007bffffffffffffffffffffffffffffffffffffffffffffffffffffffff1916827bffffffffffffffffffffffffffffffffffffffffffffffffffffffff1916145b806108515750610850826117e1565b5b9050919050565b60606000805461086790612dab565b80601f016020809104026020016040519081016040528092919081815260200182805461089390612dab565b80156108e05780601f106108b5576101008083540402835291602001916108e0565b820191906000526020600020905b8154815290600101906020018083116108c357829003601f168201915b5050505050905090565b60006108f58261184b565b506108ff826118d3565b9050919050565b6109188282610913611910565b611918565b5050565b6007543414610960576040517f08c379a000000000000000000000000000000000000000000000000000000000815260040161095790612e28565b60405180910390fd5b6006547f0000000000000000000000000000000000000000000000000000000000000000116109c4576040517f08c379a00000000000000000000000000000000000000000000000000000000081526004016109bb90612e94565b60405180910390fd5b600660008154809291906109d790612ee3565b9190505550600060065490506109ed338261192a565b7f4c209b5fc8ad50758f13e2e1088ba56a560dff690a1c6fef26394f4c03821c4f338242604051610a2093929190612b4d565b60405180910390a150565b60065481565b600073ffffffffffffffffffffffffffffffffffffffff168273ffffffffffffffffffffffffffffffffffffffff1603610aa35760006040517f64a0ae92000000000000000000000000000000000000000000000000000000008152600401610a9a919061297f565b60405180910390fd5b6000610ab78383610ab2611910565b611948565b90508373ffffffffffffffffffffffffffffffffffffffff168173ffffffffffffffffffffffffffffffffffffffff1614610b2d578382826040517f64283d7b000000000000000000000000000000000000000000000000000000008152600401610b2493929190612f2b565b60405180910390fd5b50505050565b60088181548110610b4357600080fd5b906000526020600020016000915090505481565b7f000000000000000000000000000000000000000000000000000000000000000081565b6000600d60003373ffffffffffffffffffffffffffffffffffffffff1673ffffffffffffffffffffffffffffffffffffffff1681526020019081526020016000205411610bfd576040517f08c379a0000000000000000000000000000000000000000000000000000000008152600401610bf490612fae565b60405180910390fd5b6000600d60003373ffffffffffffffffffffffffffffffffffffffff1673ffffffffffffffffffffffffffffffffffffffff1681526020019081526020016000205490506000600d60003373ffffffffffffffffffffffffffffffffffffffff1673ffffffffffffffffffffffffffffffffffffffff168152602001908152602001600020819055503373ffffffffffffffffffffffffffffffffffffffff166108fc829081150290604051600060405180830381858888f19350505050158015610ccc573d6000803e3d6000fd5b5050565b610ceb8383836040518060200160405280600081525061167c565b505050565b600b6020528060005260406000206000915054906101000a900473ffffffffffffffffffffffffffffffffffffffff1681565b6000600754341015610d6a576040517f08c379a0000000000000000000000000000000000000000000000000000000008152600401610d6190612e28565b60405180910390fd5b60003090508073ffffffffffffffffffffffffffffffffffffffff166108fc349081150290604051600060405180830381858888f19350505050158015610db5573d6000803e3d6000fd5b5034600d60003373ffffffffffffffffffffffffffffffffffffffff1673ffffffffffffffffffffffffffffffffffffffff168152602001908152602001600020819055506000600960008581526020019081526020016000206040518060600160405290816000820160009054906101000a900473ffffffffffffffffffffffffffffffffffffffff1673ffffffffffffffffffffffffffffffffffffffff1673ffffffffffffffffffffffffffffffffffffffff168152602001600182015481526020016002820154815250509050600060405180608001604052803373ffffffffffffffffffffffffffffffffffffffff16815260200186815260200183602001518152602001348152509050600033836020015134604051602001610ee093929190613037565b6040516020818303038152906040528051906020012060001c905081600a600083815260200190815260200160002060008201518160000160006101000a81548173ffffffffffffffffffffffffffffffffffffffff021916908373ffffffffffffffffffffffffffffffffffffffff1602179055506020820151816001015560408201518160020155606082015181600301559050508260000151600c600083815260200190815260200160002060006101000a81548173ffffffffffffffffffffffffffffffffffffffff021916908373ffffffffffffffffffffffffffffffffffffffff16021790555060088190806001815401808255809150506001900390600052602060002001600090919091909150557f4327feb00574fae8624f8061dfb03b68e52dab77b87960e58decd6a9bfa5461c3387344260405161102b94939291906127cd565b60405180910390a180945050505050919050565b600061104a8261184b565b9050919050565b60075481565b60008073ffffffffffffffffffffffffffffffffffffffff168273ffffffffffffffffffffffffffffffffffffffff16036110ca5760006040517f89c62b640000000000000000000000000000000000000000000000000000000081526004016110c1919061297f565b60405180910390fd5b600360008373ffffffffffffffffffffffffffffffffffffffff1673ffffffffffffffffffffffffffffffffffffffff168152602001908152602001600020549050919050565b60003373ffffffffffffffffffffffffffffffffffffffff166111338461103f565b73ffffffffffffffffffffffffffffffffffffffff1614611189576040517f08c379a0000000000000000000000000000000000000000000000000000000008152600401611180906130c0565b60405180910390fd5b600060405180606001604052803373ffffffffffffffffffffffffffffffffffffffff16815260200185815260200184815250905060003385856040516020016111d593929190613037565b6040516020818303038152906040528051906020012060001c9050816009600083815260200190815260200160002060008201518160000160006101000a81548173ffffffffffffffffffffffffffffffffffffffff021916908373ffffffffffffffffffffffffffffffffffffffff160217905550602082015181600101556040820151816002015590505033600b600083815260200190815260200160002060006101000a81548173ffffffffffffffffffffffffffffffffffffffff021916908373ffffffffffffffffffffffffffffffffffffffff16021790555060088190806001815401808255809150506001900390600052602060002001600090919091909150557fe6912bbd38fdfe7e1a8006714b8d723e3fd47973210726a4e78f10ffa43ebd923386864260405161131294939291906127cd565b60405180910390a1809250505092915050565b600061133082611057565b9050919050565b3373ffffffffffffffffffffffffffffffffffffffff16600b600084815260200190815260200160002060009054906101000a900473ffffffffffffffffffffffffffffffffffffffff1673ffffffffffffffffffffffffffffffffffffffff16146113d8576040517f08c379a00000000000000000000000000000000000000000000000000000000081526004016113cf9061312c565b60405180910390fd5b6000600a60008381526020019081526020016000206040518060800160405290816000820160009054906101000a900473ffffffffffffffffffffffffffffffffffffffff1673ffffffffffffffffffffffffffffffffffffffff1673ffffffffffffffffffffffffffffffffffffffff16815260200160018201548152602001600282015481526020016003820154815250509050828160200151146114b4576040517f08c379a00000000000000000000000000000000000000000000000000000000081526004016114ab90613198565b60405180910390fd5b600b600084815260200190815260200160002060006101000a81549073ffffffffffffffffffffffffffffffffffffffff021916905560096000848152602001908152602001600020600080820160006101000a81549073ffffffffffffffffffffffffffffffffffffffff021916905560018201600090556002820160009055505061154a3382600001518360400151611b62565b7f016814bc84e7fcf63bddbbe1fa159e54dda9b63f6f9ee1f73ce2f10a2e6c2a5d83834260405161157d939291906131b8565b60405180910390a1505050565b60606001805461159990612dab565b80601f01602080910402602001604051908101604052809291908181526020018280546115c590612dab565b80156116125780601f106115e757610100808354040283529160200191611612565b820191906000526020600020905b8154815290600101906020018083116115f557829003601f168201915b5050505050905090565b61162e611627611910565b8383611b82565b5050565b60096020528060005260406000206000915090508060000160009054906101000a900473ffffffffffffffffffffffffffffffffffffffff16908060010154908060020154905083565b611687848484610a31565b61169384848484611cf1565b50505050565b60606116a48261184b565b5060006116af611ea8565b905060008151116116cf57604051806020016040528060008152506116fa565b806116d984611ebf565b6040516020016116ea92919061322b565b6040516020818303038152906040525b915050919050565b600c6020528060005260406000206000915054906101000a900473ffffffffffffffffffffffffffffffffffffffff1681565b6000600560008473ffffffffffffffffffffffffffffffffffffffff1673ffffffffffffffffffffffffffffffffffffffff16815260200190815260200160002060008373ffffffffffffffffffffffffffffffffffffffff1673ffffffffffffffffffffffffffffffffffffffff16815260200190815260200160002060009054906101000a900460ff16905092915050565b600d6020528060005260406000206000915090505481565b60007f01ffc9a7000000000000000000000000000000000000000000000000000000007bffffffffffffffffffffffffffffffffffffffffffffffffffffffff1916827bffffffffffffffffffffffffffffffffffffffffffffffffffffffff1916149050919050565b60008061185783611f8d565b9050600073ffffffffffffffffffffffffffffffffffffffff168173ffffffffffffffffffffffffffffffffffffffff16036118ca57826040517f7e2732890000000000000000000000000000000000000000000000000000000081526004016118c19190612a06565b60405180910390fd5b80915050919050565b60006004600083815260200190815260200160002060009054906101000a900473ffffffffffffffffffffffffffffffffffffffff169050919050565b600033905090565b6119258383836001611fca565b505050565b61194482826040518060200160405280600081525061218f565b5050565b60008061195484611f8d565b9050600073ffffffffffffffffffffffffffffffffffffffff168373ffffffffffffffffffffffffffffffffffffffff1614611996576119958184866121ab565b5b600073ffffffffffffffffffffffffffffffffffffffff168173ffffffffffffffffffffffffffffffffffffffff1614611a27576119d8600085600080611fca565b6001600360008373ffffffffffffffffffffffffffffffffffffffff1673ffffffffffffffffffffffffffffffffffffffff168152602001908152602001600020600082825403925050819055505b600073ffffffffffffffffffffffffffffffffffffffff168573ffffffffffffffffffffffffffffffffffffffff1614611aaa576001600360008773ffffffffffffffffffffffffffffffffffffffff1673ffffffffffffffffffffffffffffffffffffffff168152602001908152602001600020600082825401925050819055505b846002600086815260200190815260200160002060006101000a81548173ffffffffffffffffffffffffffffffffffffffff021916908373ffffffffffffffffffffffffffffffffffffffff160217905550838573ffffffffffffffffffffffffffffffffffffffff168273ffffffffffffffffffffffffffffffffffffffff167fddf252ad1be2c89b69c2b068fc378daa952ba7f163c4a11628f55a4df523b3ef60405160405180910390a4809150509392505050565b611b7d8383836040518060200160405280600081525061226f565b505050565b600073ffffffffffffffffffffffffffffffffffffffff168273ffffffffffffffffffffffffffffffffffffffff1603611bf357816040517f5b08ba18000000000000000000000000000000000000000000000000000000008152600401611bea919061297f565b60405180910390fd5b80600560008573ffffffffffffffffffffffffffffffffffffffff1673ffffffffffffffffffffffffffffffffffffffff16815260200190815260200160002060008473ffffffffffffffffffffffffffffffffffffffff1673ffffffffffffffffffffffffffffffffffffffff16815260200190815260200160002060006101000a81548160ff0219169083151502179055508173ffffffffffffffffffffffffffffffffffffffff168373ffffffffffffffffffffffffffffffffffffffff167f17307eab39ab6107e8899845ad3d59bd9653f200f220920489ca2b5937696c3183604051611ce491906128b2565b60405180910390a3505050565b60008373ffffffffffffffffffffffffffffffffffffffff163b1115611ea2578273ffffffffffffffffffffffffffffffffffffffff1663150b7a02611d35611910565b8685856040518563ffffffff1660e01b8152600401611d5794939291906132a4565b6020604051808303816000875af1925050508015611d9357506040513d601f19601f82011682018060405250810190611d909190613305565b60015b611e17573d8060008114611dc3576040519150601f19603f3d011682016040523d82523d6000602084013e611dc8565b606091505b506000815103611e0f57836040517f64a0ae92000000000000000000000000000000000000000000000000000000008152600401611e06919061297f565b60405180910390fd5b805181602001fd5b63150b7a0260e01b7bffffffffffffffffffffffffffffffffffffffffffffffffffffffff1916817bffffffffffffffffffffffffffffffffffffffffffffffffffffffff191614611ea057836040517f64a0ae92000000000000000000000000000000000000000000000000000000008152600401611e97919061297f565b60405180910390fd5b505b50505050565b606060405180602001604052806000815250905090565b606060006001611ece8461228c565b01905060008167ffffffffffffffff811115611eed57611eec612b8e565b5b6040519080825280601f01601f191660200182016040528015611f1f5781602001600182028036833780820191505090505b509050600082602001820190505b600115611f82578080600190039150507f3031323334353637383961626364656600000000000000000000000000000000600a86061a8153600a8581611f7657611f75613332565b5b04945060008503611f2d575b819350505050919050565b60006002600083815260200190815260200160002060009054906101000a900473ffffffffffffffffffffffffffffffffffffffff169050919050565b80806120035750600073ffffffffffffffffffffffffffffffffffffffff168273ffffffffffffffffffffffffffffffffffffffff1614155b156121375760006120138461184b565b9050600073ffffffffffffffffffffffffffffffffffffffff168373ffffffffffffffffffffffffffffffffffffffff161415801561207e57508273ffffffffffffffffffffffffffffffffffffffff168173ffffffffffffffffffffffffffffffffffffffff1614155b8015612091575061208f8184611735565b155b156120d357826040517fa9fbf51f0000000000000000000000000000000000000000000000000000000081526004016120ca919061297f565b60405180910390fd5b811561213557838573ffffffffffffffffffffffffffffffffffffffff168273ffffffffffffffffffffffffffffffffffffffff167f8c5be1e5ebec7d5bd14f71427d1e84f3dd0314c0f7b2291e5b200ac8c7c3b92560405160405180910390a45b505b836004600085815260200190815260200160002060006101000a81548173ffffffffffffffffffffffffffffffffffffffff021916908373ffffffffffffffffffffffffffffffffffffffff16021790555050505050565b61219983836123df565b6121a66000848484611cf1565b505050565b6121b68383836124d8565b61226a57600073ffffffffffffffffffffffffffffffffffffffff168373ffffffffffffffffffffffffffffffffffffffff160361222b57806040517f7e2732890000000000000000000000000000000000000000000000000000000081526004016122229190612a06565b60405180910390fd5b81816040517f177e802f000000000000000000000000000000000000000000000000000000008152600401612261929190613361565b60405180910390fd5b505050565b61227a848484612599565b61228684848484611cf1565b50505050565b600080600090507a184f03e93ff9f4daa797ed6e38ed64bf6a1f01000000000000000083106122ea577a184f03e93ff9f4daa797ed6e38ed64bf6a1f01000000000000000083816122e0576122df613332565b5b0492506040810190505b6d04ee2d6d415b85acef81000000008310612327576d04ee2d6d415b85acef8100000000838161231d5761231c613332565b5b0492506020810190505b662386f26fc10000831061235657662386f26fc10000838161234c5761234b613332565b5b0492506010810190505b6305f5e100831061237f576305f5e100838161237557612374613332565b5b0492506008810190505b61271083106123a457612710838161239a57612399613332565b5b0492506004810190505b606483106123c757606483816123bd576123bc613332565b5b0492506002810190505b600a83106123d6576001810190505b80915050919050565b600073ffffffffffffffffffffffffffffffffffffffff168273ffffffffffffffffffffffffffffffffffffffff16036124515760006040517f64a0ae92000000000000000000000000000000000000000000000000000000008152600401612448919061297f565b60405180910390fd5b600061245f83836000611948565b9050600073ffffffffffffffffffffffffffffffffffffffff168173ffffffffffffffffffffffffffffffffffffffff16146124d35760006040517f73c6ac6e0000000000000000000000000000000000000000000000000000000081526004016124ca919061297f565b60405180910390fd5b505050565b60008073ffffffffffffffffffffffffffffffffffffffff168373ffffffffffffffffffffffffffffffffffffffff161415801561259057508273ffffffffffffffffffffffffffffffffffffffff168473ffffffffffffffffffffffffffffffffffffffff16148061255157506125508484611735565b5b8061258f57508273ffffffffffffffffffffffffffffffffffffffff16612577836118d3565b73ffffffffffffffffffffffffffffffffffffffff16145b5b90509392505050565b600073ffffffffffffffffffffffffffffffffffffffff168273ffffffffffffffffffffffffffffffffffffffff160361260b5760006040517f64a0ae92000000000000000000000000000000000000000000000000000000008152600401612602919061297f565b60405180910390fd5b600061261983836000611948565b9050600073ffffffffffffffffffffffffffffffffffffffff168173ffffffffffffffffffffffffffffffffffffffff160361268c57816040517f7e2732890000000000000000000000000000000000000000000000000000000081526004016126839190612a06565b60405180910390fd5b8373ffffffffffffffffffffffffffffffffffffffff168173ffffffffffffffffffffffffffffffffffffffff1614612700578382826040517f64283d7b0000000000000000000000000000000000000000000000000000000081526004016126f793929190612f2b565b60405180910390fd5b50505050565b6000604051905090565b600080fd5b600080fd5b6000819050919050565b61272d8161271a565b811461273857600080fd5b50565b60008135905061274a81612724565b92915050565b60006020828403121561276657612765612710565b5b60006127748482850161273b565b91505092915050565b600073ffffffffffffffffffffffffffffffffffffffff82169050919050565b60006127a88261277d565b9050919050565b6127b88161279d565b82525050565b6127c78161271a565b82525050565b60006080820190506127e260008301876127af565b6127ef60208301866127be565b6127fc60408301856127be565b61280960608301846127be565b95945050505050565b60007fffffffff0000000000000000000000000000000000000000000000000000000082169050919050565b61284781612812565b811461285257600080fd5b50565b6000813590506128648161283e565b92915050565b6000602082840312156128805761287f612710565b5b600061288e84828501612855565b91505092915050565b60008115159050919050565b6128ac81612897565b82525050565b60006020820190506128c760008301846128a3565b92915050565b600081519050919050565b600082825260208201905092915050565b60005b838110156129075780820151818401526020810190506128ec565b60008484015250505050565b6000601f19601f8301169050919050565b600061292f826128cd565b61293981856128d8565b93506129498185602086016128e9565b61295281612913565b840191505092915050565b600060208201905081810360008301526129778184612924565b905092915050565b600060208201905061299460008301846127af565b92915050565b6129a38161279d565b81146129ae57600080fd5b50565b6000813590506129c08161299a565b92915050565b600080604083850312156129dd576129dc612710565b5b60006129eb858286016129b1565b92505060206129fc8582860161273b565b9150509250929050565b6000602082019050612a1b60008301846127be565b92915050565b600080600060608486031215612a3a57612a39612710565b5b6000612a48868287016129b1565b9350506020612a59868287016129b1565b9250506040612a6a8682870161273b565b9150509250925092565b600060208284031215612a8a57612a89612710565b5b6000612a98848285016129b1565b91505092915050565b60008060408385031215612ab857612ab7612710565b5b6000612ac68582860161273b565b9250506020612ad78582860161273b565b9150509250929050565b612aea81612897565b8114612af557600080fd5b50565b600081359050612b0781612ae1565b92915050565b60008060408385031215612b2457612b23612710565b5b6000612b32858286016129b1565b9250506020612b4385828601612af8565b9150509250929050565b6000606082019050612b6260008301866127af565b612b6f60208301856127be565b612b7c60408301846127be565b949350505050565b600080fd5b600080fd5b7f4e487b7100000000000000000000000000000000000000000000000000000000600052604160045260246000fd5b612bc682612913565b810181811067ffffffffffffffff82111715612be557612be4612b8e565b5b80604052505050565b6000612bf8612706565b9050612c048282612bbd565b919050565b600067ffffffffffffffff821115612c2457612c23612b8e565b5b612c2d82612913565b9050602081019050919050565b82818337600083830152505050565b6000612c5c612c5784612c09565b612bee565b905082815260208101848484011115612c7857612c77612b89565b5b612c83848285612c3a565b509392505050565b600082601f830112612ca057612c9f612b84565b5b8135612cb0848260208601612c49565b91505092915050565b60008060008060808587031215612cd357612cd2612710565b5b6000612ce1878288016129b1565b9450506020612cf2878288016129b1565b9350506040612d038782880161273b565b925050606085013567ffffffffffffffff811115612d2457612d23612715565b5b612d3087828801612c8b565b91505092959194509250565b60008060408385031215612d5357612d52612710565b5b6000612d61858286016129b1565b9250506020612d72858286016129b1565b9150509250929050565b7f4e487b7100000000000000000000000000000000000000000000000000000000600052602260045260246000fd5b60006002820490506001821680612dc357607f821691505b602082108103612dd657612dd5612d7c565b5b50919050565b7f57726f6e672076616c7565000000000000000000000000000000000000000000600082015250565b6000612e12600b836128d8565b9150612e1d82612ddc565b602082019050919050565b60006020820190508181036000830152612e4181612e05565b9050919050565b7f536f6c64206f7574000000000000000000000000000000000000000000000000600082015250565b6000612e7e6008836128d8565b9150612e8982612e48565b602082019050919050565b60006020820190508181036000830152612ead81612e71565b9050919050565b7f4e487b7100000000000000000000000000000000000000000000000000000000600052601160045260246000fd5b6000612eee8261271a565b91507fffffffffffffffffffffffffffffffffffffffffffffffffffffffffffffffff8203612f2057612f1f612eb4565b5b600182019050919050565b6000606082019050612f4060008301866127af565b612f4d60208301856127be565b612f5a60408301846127af565b949350505050565b7f496e73756666696369656e742062616c616e6365000000000000000000000000600082015250565b6000612f986014836128d8565b9150612fa382612f62565b602082019050919050565b60006020820190508181036000830152612fc781612f8b565b9050919050565b60008160601b9050919050565b6000612fe682612fce565b9050919050565b6000612ff882612fdb565b9050919050565b61301061300b8261279d565b612fed565b82525050565b6000819050919050565b61303161302c8261271a565b613016565b82525050565b60006130438286612fff565b6014820191506130538285613020565b6020820191506130638284613020565b602082019150819050949350505050565b7f4e6f74206f776e65720000000000000000000000000000000000000000000000600082015250565b60006130aa6009836128d8565b91506130b582613074565b602082019050919050565b600060208201905081810360008301526130d98161309d565b9050919050565b7f4e6f7420746865206f72646572206f776e657200000000000000000000000000600082015250565b60006131166013836128d8565b9150613121826130e0565b602082019050919050565b6000602082019050818103600083015261314581613109565b9050919050565b7f57726f6e672070726f706f73616c206964000000000000000000000000000000600082015250565b60006131826011836128d8565b915061318d8261314c565b602082019050919050565b600060208201905081810360008301526131b181613175565b9050919050565b60006060820190506131cd60008301866127be565b6131da60208301856127be565b6131e760408301846127be565b949350505050565b600081905092915050565b6000613205826128cd565b61320f81856131ef565b935061321f8185602086016128e9565b80840191505092915050565b600061323782856131fa565b915061324382846131fa565b91508190509392505050565b600081519050919050565b600082825260208201905092915050565b60006132768261324f565b613280818561325a565b93506132908185602086016128e9565b61329981612913565b840191505092915050565b60006080820190506132b960008301876127af565b6132c660208301866127af565b6132d360408301856127be565b81810360608301526132e5818461326b565b905095945050505050565b6000815190506132ff8161283e565b92915050565b60006020828403121561331b5761331a612710565b5b6000613329848285016132f0565b91505092915050565b7f4e487b7100000000000000000000000000000000000000000000000000000000600052601260045260246000fd5b600060408201905061337660008301856127af565b61338360208301846127be565b939250505056fea26469706673582212208a796411dea862f70c40e85fbc48f108f5ba115cc8b82b0e2a332d54aa63096c64736f6c63430008140033",
  "devdoc": {
    "errors": {
      "ERC721IncorrectOwner(address,uint256,address)": [
        {
          "details": "Indicates an error related to the ownership over a particular token. Used in transfers.",
          "params": {
            "owner": "Address of the current owner of a token.",
            "sender": "Address whose tokens are being transferred.",
            "tokenId": "Identifier number of a token."
          }
        }
      ],
      "ERC721InsufficientApproval(address,uint256)": [
        {
          "details": "Indicates a failure with the `operator`s approval. Used in transfers.",
          "params": {
            "operator": "Address that may be allowed to operate on tokens without being their owner.",
            "tokenId": "Identifier number of a token."
          }
        }
      ],
      "ERC721InvalidApprover(address)": [
        {
          "details": "Indicates a failure with the `approver` of a token to be approved. Used in approvals.",
          "params": {
            "approver": "Address initiating an approval operation."
          }
        }
      ],
      "ERC721InvalidOperator(address)": [
        {
          "details": "Indicates a failure with the `operator` to be approved. Used in approvals.",
          "params": {
            "operator": "Address that may be allowed to operate on tokens without being their owner."
          }
        }
      ],
      "ERC721InvalidOwner(address)": [
        {
          "details": "Indicates that an address can't be an owner. For example, `address(0)` is a forbidden owner in EIP-20. Used in balance queries.",
          "params": {
            "owner": "Address of the current owner of a token."
          }
        }
      ],
      "ERC721InvalidReceiver(address)": [
        {
          "details": "Indicates a failure with the token `receiver`. Used in transfers.",
          "params": {
            "receiver": "Address to which tokens are being transferred."
          }
        }
      ],
      "ERC721InvalidSender(address)": [
        {
          "details": "Indicates a failure with the token `sender`. Used in transfers.",
          "params": {
            "sender": "Address whose tokens are being transferred."
          }
        }
      ],
      "ERC721NonexistentToken(uint256)": [
        {
          "details": "Indicates a `tokenId` whose `owner` is the zero address.",
          "params": {
            "tokenId": "Identifier number of a token."
          }
        }
      ]
    },
    "events": {
      "Approval(address,address,uint256)": {
        "details": "Emitted when `owner` enables `approved` to manage the `tokenId` token."
      },
      "ApprovalForAll(address,address,bool)": {
        "details": "Emitted when `owner` enables or disables (`approved`) `operator` to manage all of its assets."
      },
      "Transfer(address,address,uint256)": {
        "details": "Emitted when `tokenId` token is transferred from `from` to `to`."
      }
    },
    "kind": "dev",
    "methods": {
      "approve(address,uint256)": {
        "details": "See {IERC721-approve}."
      },
      "balanceOf(address)": {
        "details": "See {IERC721-balanceOf}."
      },
      "getApproved(uint256)": {
        "details": "See {IERC721-getApproved}."
      },
      "isApprovedForAll(address,address)": {
        "details": "See {IERC721-isApprovedForAll}."
      },
      "name()": {
        "details": "See {IERC721Metadata-name}."
      },
      "ownerOf(uint256)": {
        "details": "See {IERC721-ownerOf}."
      },
      "safeTransferFrom(address,address,uint256)": {
        "details": "See {IERC721-safeTransferFrom}."
      },
      "safeTransferFrom(address,address,uint256,bytes)": {
        "details": "See {IERC721-safeTransferFrom}."
      },
      "setApprovalForAll(address,bool)": {
        "details": "See {IERC721-setApprovalForAll}."
      },
      "supportsInterface(bytes4)": {
        "details": "See {IERC165-supportsInterface}."
      },
      "symbol()": {
        "details": "See {IERC721Metadata-symbol}."
      },
      "tokenURI(uint256)": {
        "details": "See {IERC721Metadata-tokenURI}."
      },
      "transferFrom(address,address,uint256)": {
        "details": "See {IERC721-transferFrom}."
      }
    },
    "version": 1
  },
  "userdoc": {
    "kind": "user",
    "methods": {},
    "version": 1
  },
  "storageLayout": {
    "storage": [
      {
        "astId": 169,
        "contract": "contracts/MNFT.sol:MNFT",
        "label": "_name",
        "offset": 0,
        "slot": "0",
        "type": "t_string_storage"
      },
      {
        "astId": 171,
        "contract": "contracts/MNFT.sol:MNFT",
        "label": "_symbol",
        "offset": 0,
        "slot": "1",
        "type": "t_string_storage"
      },
      {
        "astId": 175,
        "contract": "contracts/MNFT.sol:MNFT",
        "label": "_owners",
        "offset": 0,
        "slot": "2",
        "type": "t_mapping(t_uint256,t_address)"
      },
      {
        "astId": 179,
        "contract": "contracts/MNFT.sol:MNFT",
        "label": "_balances",
        "offset": 0,
        "slot": "3",
        "type": "t_mapping(t_address,t_uint256)"
      },
      {
        "astId": 183,
        "contract": "contracts/MNFT.sol:MNFT",
        "label": "_tokenApprovals",
        "offset": 0,
        "slot": "4",
        "type": "t_mapping(t_uint256,t_address)"
      },
      {
        "astId": 189,
        "contract": "contracts/MNFT.sol:MNFT",
        "label": "_operatorApprovals",
        "offset": 0,
        "slot": "5",
        "type": "t_mapping(t_address,t_mapping(t_address,t_bool))"
      },
      {
        "astId": 2799,
        "contract": "contracts/MNFT.sol:MNFT",
        "label": "totalSupply",
        "offset": 0,
        "slot": "6",
        "type": "t_uint256"
      },
      {
        "astId": 2802,
        "contract": "contracts/MNFT.sol:MNFT",
        "label": "mintPrice",
        "offset": 0,
        "slot": "7",
        "type": "t_uint256"
      },
      {
        "astId": 2821,
        "contract": "contracts/MNFT.sol:MNFT",
        "label": "test",
        "offset": 0,
        "slot": "8",
        "type": "t_array(t_uint256)dyn_storage"
      },
      {
        "astId": 2826,
        "contract": "contracts/MNFT.sol:MNFT",
        "label": "orders",
        "offset": 0,
        "slot": "9",
        "type": "t_mapping(t_uint256,t_struct(Order)2809_storage)"
      },
      {
        "astId": 2831,
        "contract": "contracts/MNFT.sol:MNFT",
        "label": "proposals",
        "offset": 0,
        "slot": "10",
        "type": "t_mapping(t_uint256,t_struct(Proposal)2818_storage)"
      },
      {
        "astId": 2835,
        "contract": "contracts/MNFT.sol:MNFT",
        "label": "userOrders",
        "offset": 0,
        "slot": "11",
        "type": "t_mapping(t_uint256,t_address)"
      },
      {
        "astId": 2839,
        "contract": "contracts/MNFT.sol:MNFT",
        "label": "userProposals",
        "offset": 0,
        "slot": "12",
        "type": "t_mapping(t_uint256,t_address)"
      },
      {
        "astId": 2843,
        "contract": "contracts/MNFT.sol:MNFT",
        "label": "withdrawAllowance",
        "offset": 0,
        "slot": "13",
        "type": "t_mapping(t_address,t_uint256)"
      }
    ],
    "types": {
      "t_address": {
        "encoding": "inplace",
        "label": "address",
        "numberOfBytes": "20"
      },
      "t_array(t_uint256)dyn_storage": {
        "base": "t_uint256",
        "encoding": "dynamic_array",
        "label": "uint256[]",
        "numberOfBytes": "32"
      },
      "t_bool": {
        "encoding": "inplace",
        "label": "bool",
        "numberOfBytes": "1"
      },
      "t_mapping(t_address,t_bool)": {
        "encoding": "mapping",
        "key": "t_address",
        "label": "mapping(address => bool)",
        "numberOfBytes": "32",
        "value": "t_bool"
      },
      "t_mapping(t_address,t_mapping(t_address,t_bool))": {
        "encoding": "mapping",
        "key": "t_address",
        "label": "mapping(address => mapping(address => bool))",
        "numberOfBytes": "32",
        "value": "t_mapping(t_address,t_bool)"
      },
      "t_mapping(t_address,t_uint256)": {
        "encoding": "mapping",
        "key": "t_address",
        "label": "mapping(address => uint256)",
        "numberOfBytes": "32",
        "value": "t_uint256"
      },
      "t_mapping(t_uint256,t_address)": {
        "encoding": "mapping",
        "key": "t_uint256",
        "label": "mapping(uint256 => address)",
        "numberOfBytes": "32",
        "value": "t_address"
      },
      "t_mapping(t_uint256,t_struct(Order)2809_storage)": {
        "encoding": "mapping",
        "key": "t_uint256",
        "label": "mapping(uint256 => struct MNFT.Order)",
        "numberOfBytes": "32",
        "value": "t_struct(Order)2809_storage"
      },
      "t_mapping(t_uint256,t_struct(Proposal)2818_storage)": {
        "encoding": "mapping",
        "key": "t_uint256",
        "label": "mapping(uint256 => struct MNFT.Proposal)",
        "numberOfBytes": "32",
        "value": "t_struct(Proposal)2818_storage"
      },
      "t_string_storage": {
        "encoding": "bytes",
        "label": "string",
        "numberOfBytes": "32"
      },
      "t_struct(Order)2809_storage": {
        "encoding": "inplace",
        "label": "struct MNFT.Order",
        "members": [
          {
            "astId": 2804,
            "contract": "contracts/MNFT.sol:MNFT",
            "label": "owner",
            "offset": 0,
            "slot": "0",
            "type": "t_address"
          },
          {
            "astId": 2806,
            "contract": "contracts/MNFT.sol:MNFT",
            "label": "nft",
            "offset": 0,
            "slot": "1",
            "type": "t_uint256"
          },
          {
            "astId": 2808,
            "contract": "contracts/MNFT.sol:MNFT",
            "label": "price",
            "offset": 0,
            "slot": "2",
            "type": "t_uint256"
          }
        ],
        "numberOfBytes": "96"
      },
      "t_struct(Proposal)2818_storage": {
        "encoding": "inplace",
        "label": "struct MNFT.Proposal",
        "members": [
          {
            "astId": 2811,
            "contract": "contracts/MNFT.sol:MNFT",
            "label": "user",
            "offset": 0,
            "slot": "0",
            "type": "t_address"
          },
          {
            "astId": 2813,
            "contract": "contracts/MNFT.sol:MNFT",
            "label": "orderId",
            "offset": 0,
            "slot": "1",
            "type": "t_uint256"
          },
          {
            "astId": 2815,
            "contract": "contracts/MNFT.sol:MNFT",
            "label": "nft",
            "offset": 0,
            "slot": "2",
            "type": "t_uint256"
          },
          {
            "astId": 2817,
            "contract": "contracts/MNFT.sol:MNFT",
            "label": "price",
            "offset": 0,
            "slot": "3",
            "type": "t_uint256"
          }
        ],
        "numberOfBytes": "128"
      },
      "t_uint256": {
        "encoding": "inplace",
        "label": "uint256",
        "numberOfBytes": "32"
      }
    }
  }
}