{
  "address": "0x269A8E2776B85eBd30837586a7f7C7F33d83580e",
  "abi": [
    {
      "inputs": [],
      "stateMutability": "nonpayable",
      "type": "constructor"
    },
    {
      "inputs": [
        {
          "internalType": "address",
          "name": "sender",
          "type": "address"
        },
        {
          "internalType": "uint256",
          "name": "tokenId",
          "type": "uint256"
        },
        {
          "internalType": "address",
          "name": "owner",
          "type": "address"
        }
      ],
      "name": "ERC721IncorrectOwner",
      "type": "error"
    },
    {
      "inputs": [
        {
          "internalType": "address",
          "name": "operator",
          "type": "address"
        },
        {
          "internalType": "uint256",
          "name": "tokenId",
          "type": "uint256"
        }
      ],
      "name": "ERC721InsufficientApproval",
      "type": "error"
    },
    {
      "inputs": [
        {
          "internalType": "address",
          "name": "approver",
          "type": "address"
        }
      ],
      "name": "ERC721InvalidApprover",
      "type": "error"
    },
    {
      "inputs": [
        {
          "internalType": "address",
          "name": "operator",
          "type": "address"
        }
      ],
      "name": "ERC721InvalidOperator",
      "type": "error"
    },
    {
      "inputs": [
        {
          "internalType": "address",
          "name": "owner",
          "type": "address"
        }
      ],
      "name": "ERC721InvalidOwner",
      "type": "error"
    },
    {
      "inputs": [
        {
          "internalType": "address",
          "name": "receiver",
          "type": "address"
        }
      ],
      "name": "ERC721InvalidReceiver",
      "type": "error"
    },
    {
      "inputs": [
        {
          "internalType": "address",
          "name": "sender",
          "type": "address"
        }
      ],
      "name": "ERC721InvalidSender",
      "type": "error"
    },
    {
      "inputs": [
        {
          "internalType": "uint256",
          "name": "tokenId",
          "type": "uint256"
        }
      ],
      "name": "ERC721NonexistentToken",
      "type": "error"
    },
    {
      "anonymous": false,
      "inputs": [
        {
          "indexed": true,
          "internalType": "address",
          "name": "owner",
          "type": "address"
        },
        {
          "indexed": true,
          "internalType": "address",
          "name": "approved",
          "type": "address"
        },
        {
          "indexed": true,
          "internalType": "uint256",
          "name": "tokenId",
          "type": "uint256"
        }
      ],
      "name": "Approval",
      "type": "event"
    },
    {
      "anonymous": false,
      "inputs": [
        {
          "indexed": true,
          "internalType": "address",
          "name": "owner",
          "type": "address"
        },
        {
          "indexed": true,
          "internalType": "address",
          "name": "operator",
          "type": "address"
        },
        {
          "indexed": false,
          "internalType": "bool",
          "name": "approved",
          "type": "bool"
        }
      ],
      "name": "ApprovalForAll",
      "type": "event"
    },
    {
      "anonymous": false,
      "inputs": [
        {
          "indexed": false,
          "internalType": "address",
          "name": "user",
          "type": "address"
        },
        {
          "indexed": false,
          "internalType": "uint256",
          "name": "nft",
          "type": "uint256"
        },
        {
          "indexed": false,
          "internalType": "uint256",
          "name": "time",
          "type": "uint256"
        }
      ],
      "name": "Mint",
      "type": "event"
    },
    {
      "anonymous": false,
      "inputs": [
        {
          "indexed": false,
          "internalType": "uint256",
          "name": "orderId",
          "type": "uint256"
        },
        {
          "indexed": false,
          "internalType": "uint256",
          "name": "proposalId",
          "type": "uint256"
        },
        {
          "indexed": false,
          "internalType": "uint256",
          "name": "time",
          "type": "uint256"
        }
      ],
      "name": "OrderClosed",
      "type": "event"
    },
    {
      "anonymous": false,
      "inputs": [
        {
          "indexed": false,
          "internalType": "uint256",
          "name": "id",
          "type": "uint256"
        },
        {
          "indexed": false,
          "internalType": "uint256",
          "name": "nft",
          "type": "uint256"
        },
        {
          "indexed": false,
          "internalType": "uint256",
          "name": "price",
          "type": "uint256"
        },
        {
          "indexed": false,
          "internalType": "bool",
          "name": "isClosed",
          "type": "bool"
        },
        {
          "indexed": false,
          "internalType": "address",
          "name": "owner",
          "type": "address"
        }
      ],
      "name": "OrderPlaced",
      "type": "event"
    },
    {
      "anonymous": false,
      "inputs": [
        {
          "indexed": false,
          "internalType": "uint256",
          "name": "id",
          "type": "uint256"
        },
        {
          "indexed": false,
          "internalType": "uint256",
          "name": "orderId",
          "type": "uint256"
        },
        {
          "indexed": false,
          "internalType": "uint256",
          "name": "nft",
          "type": "uint256"
        },
        {
          "indexed": false,
          "internalType": "uint256",
          "name": "price",
          "type": "uint256"
        },
        {
          "indexed": false,
          "internalType": "bool",
          "name": "isClosed",
          "type": "bool"
        },
        {
          "indexed": false,
          "internalType": "address",
          "name": "author",
          "type": "address"
        },
        {
          "indexed": false,
          "internalType": "address",
          "name": "orderOwner",
          "type": "address"
        }
      ],
      "name": "ProposalPlaced",
      "type": "event"
    },
    {
      "anonymous": false,
      "inputs": [
        {
          "indexed": true,
          "internalType": "address",
          "name": "from",
          "type": "address"
        },
        {
          "indexed": true,
          "internalType": "address",
          "name": "to",
          "type": "address"
        },
        {
          "indexed": true,
          "internalType": "uint256",
          "name": "tokenId",
          "type": "uint256"
        }
      ],
      "name": "Transfer",
      "type": "event"
    },
    {
      "inputs": [],
      "name": "MAX_SUPPLY",
      "outputs": [
        {
          "internalType": "uint256",
          "name": "",
          "type": "uint256"
        }
      ],
      "stateMutability": "view",
      "type": "function"
    },
    {
      "inputs": [
        {
          "internalType": "address",
          "name": "to",
          "type": "address"
        },
        {
          "internalType": "uint256",
          "name": "tokenId",
          "type": "uint256"
        }
      ],
      "name": "approve",
      "outputs": [],
      "stateMutability": "nonpayable",
      "type": "function"
    },
    {
      "inputs": [
        {
          "internalType": "address",
          "name": "owner",
          "type": "address"
        }
      ],
      "name": "balanceOf",
      "outputs": [
        {
          "internalType": "uint256",
          "name": "",
          "type": "uint256"
        }
      ],
      "stateMutability": "view",
      "type": "function"
    },
    {
      "inputs": [
        {
          "internalType": "uint256",
          "name": "_orderId",
          "type": "uint256"
        },
        {
          "internalType": "uint256",
          "name": "_proposalId",
          "type": "uint256"
        }
      ],
      "name": "closeOrder",
      "outputs": [],
      "stateMutability": "payable",
      "type": "function"
    },
    {
      "inputs": [
        {
          "internalType": "uint256",
          "name": "_nft",
          "type": "uint256"
        },
        {
          "internalType": "uint256",
          "name": "_price",
          "type": "uint256"
        }
      ],
      "name": "createOrder",
      "outputs": [
        {
          "internalType": "uint256",
          "name": "",
          "type": "uint256"
        }
      ],
      "stateMutability": "nonpayable",
      "type": "function"
    },
    {
      "inputs": [
        {
          "internalType": "uint256",
          "name": "_orderId",
          "type": "uint256"
        }
      ],
      "name": "createProposal",
      "outputs": [
        {
          "internalType": "uint256",
          "name": "",
          "type": "uint256"
        }
      ],
      "stateMutability": "payable",
      "type": "function"
    },
    {
      "inputs": [
        {
          "internalType": "uint256",
          "name": "tokenId",
          "type": "uint256"
        }
      ],
      "name": "getApproved",
      "outputs": [
        {
          "internalType": "address",
          "name": "",
          "type": "address"
        }
      ],
      "stateMutability": "view",
      "type": "function"
    },
    {
      "inputs": [
        {
          "internalType": "uint256",
          "name": "nft",
          "type": "uint256"
        }
      ],
      "name": "getNftOwner",
      "outputs": [
        {
          "internalType": "address",
          "name": "",
          "type": "address"
        }
      ],
      "stateMutability": "nonpayable",
      "type": "function"
    },
    {
      "inputs": [
        {
          "internalType": "address",
          "name": "_account",
          "type": "address"
        }
      ],
      "name": "getUserNftsAmount",
      "outputs": [
        {
          "internalType": "uint256",
          "name": "",
          "type": "uint256"
        }
      ],
      "stateMutability": "view",
      "type": "function"
    },
    {
      "inputs": [
        {
          "internalType": "address",
          "name": "owner",
          "type": "address"
        },
        {
          "internalType": "address",
          "name": "operator",
          "type": "address"
        }
      ],
      "name": "isApprovedForAll",
      "outputs": [
        {
          "internalType": "bool",
          "name": "",
          "type": "bool"
        }
      ],
      "stateMutability": "view",
      "type": "function"
    },
    {
      "inputs": [],
      "name": "mint",
      "outputs": [],
      "stateMutability": "payable",
      "type": "function"
    },
    {
      "inputs": [],
      "name": "mintPrice",
      "outputs": [
        {
          "internalType": "uint256",
          "name": "",
          "type": "uint256"
        }
      ],
      "stateMutability": "view",
      "type": "function"
    },
    {
      "inputs": [],
      "name": "name",
      "outputs": [
        {
          "internalType": "string",
          "name": "",
          "type": "string"
        }
      ],
      "stateMutability": "view",
      "type": "function"
    },
    {
      "inputs": [
        {
          "internalType": "uint256",
          "name": "",
          "type": "uint256"
        }
      ],
      "name": "orders",
      "outputs": [
        {
          "internalType": "uint256",
          "name": "id",
          "type": "uint256"
        },
        {
          "internalType": "uint256",
          "name": "nft",
          "type": "uint256"
        },
        {
          "internalType": "uint256",
          "name": "price",
          "type": "uint256"
        },
        {
          "internalType": "bool",
          "name": "isClosed",
          "type": "bool"
        },
        {
          "internalType": "address",
          "name": "owner",
          "type": "address"
        }
      ],
      "stateMutability": "view",
      "type": "function"
    },
    {
      "inputs": [
        {
          "internalType": "uint256",
          "name": "tokenId",
          "type": "uint256"
        }
      ],
      "name": "ownerOf",
      "outputs": [
        {
          "internalType": "address",
          "name": "",
          "type": "address"
        }
      ],
      "stateMutability": "view",
      "type": "function"
    },
    {
      "inputs": [
        {
          "internalType": "uint256",
          "name": "",
          "type": "uint256"
        }
      ],
      "name": "proposals",
      "outputs": [
        {
          "internalType": "uint256",
          "name": "id",
          "type": "uint256"
        },
        {
          "internalType": "uint256",
          "name": "orderId",
          "type": "uint256"
        },
        {
          "internalType": "uint256",
          "name": "nft",
          "type": "uint256"
        },
        {
          "internalType": "uint256",
          "name": "price",
          "type": "uint256"
        },
        {
          "internalType": "bool",
          "name": "isClosed",
          "type": "bool"
        },
        {
          "internalType": "address",
          "name": "author",
          "type": "address"
        },
        {
          "internalType": "address",
          "name": "orderOwner",
          "type": "address"
        }
      ],
      "stateMutability": "view",
      "type": "function"
    },
    {
      "inputs": [
        {
          "internalType": "address",
          "name": "from",
          "type": "address"
        },
        {
          "internalType": "address",
          "name": "to",
          "type": "address"
        },
        {
          "internalType": "uint256",
          "name": "tokenId",
          "type": "uint256"
        }
      ],
      "name": "safeTransferFrom",
      "outputs": [],
      "stateMutability": "nonpayable",
      "type": "function"
    },
    {
      "inputs": [
        {
          "internalType": "address",
          "name": "from",
          "type": "address"
        },
        {
          "internalType": "address",
          "name": "to",
          "type": "address"
        },
        {
          "internalType": "uint256",
          "name": "tokenId",
          "type": "uint256"
        },
        {
          "internalType": "bytes",
          "name": "data",
          "type": "bytes"
        }
      ],
      "name": "safeTransferFrom",
      "outputs": [],
      "stateMutability": "nonpayable",
      "type": "function"
    },
    {
      "inputs": [
        {
          "internalType": "address",
          "name": "operator",
          "type": "address"
        },
        {
          "internalType": "bool",
          "name": "approved",
          "type": "bool"
        }
      ],
      "name": "setApprovalForAll",
      "outputs": [],
      "stateMutability": "nonpayable",
      "type": "function"
    },
    {
      "inputs": [
        {
          "internalType": "bytes4",
          "name": "interfaceId",
          "type": "bytes4"
        }
      ],
      "name": "supportsInterface",
      "outputs": [
        {
          "internalType": "bool",
          "name": "",
          "type": "bool"
        }
      ],
      "stateMutability": "view",
      "type": "function"
    },
    {
      "inputs": [],
      "name": "symbol",
      "outputs": [
        {
          "internalType": "string",
          "name": "",
          "type": "string"
        }
      ],
      "stateMutability": "view",
      "type": "function"
    },
    {
      "inputs": [
        {
          "internalType": "uint256",
          "name": "",
          "type": "uint256"
        }
      ],
      "name": "test",
      "outputs": [
        {
          "internalType": "uint256",
          "name": "",
          "type": "uint256"
        }
      ],
      "stateMutability": "view",
      "type": "function"
    },
    {
      "inputs": [
        {
          "internalType": "uint256",
          "name": "tokenId",
          "type": "uint256"
        }
      ],
      "name": "tokenURI",
      "outputs": [
        {
          "internalType": "string",
          "name": "",
          "type": "string"
        }
      ],
      "stateMutability": "view",
      "type": "function"
    },
    {
      "inputs": [],
      "name": "totalSupply",
      "outputs": [
        {
          "internalType": "uint256",
          "name": "",
          "type": "uint256"
        }
      ],
      "stateMutability": "view",
      "type": "function"
    },
    {
      "inputs": [
        {
          "internalType": "address",
          "name": "from",
          "type": "address"
        },
        {
          "internalType": "address",
          "name": "to",
          "type": "address"
        },
        {
          "internalType": "uint256",
          "name": "tokenId",
          "type": "uint256"
        }
      ],
      "name": "transferFrom",
      "outputs": [],
      "stateMutability": "nonpayable",
      "type": "function"
    },
    {
      "inputs": [
        {
          "internalType": "uint256",
          "name": "",
          "type": "uint256"
        }
      ],
      "name": "userOrders",
      "outputs": [
        {
          "internalType": "address",
          "name": "",
          "type": "address"
        }
      ],
      "stateMutability": "view",
      "type": "function"
    },
    {
      "inputs": [
        {
          "internalType": "uint256",
          "name": "",
          "type": "uint256"
        }
      ],
      "name": "userProposals",
      "outputs": [
        {
          "internalType": "address",
          "name": "",
          "type": "address"
        }
      ],
      "stateMutability": "view",
      "type": "function"
    },
    {
      "inputs": [],
      "name": "withdraw",
      "outputs": [],
      "stateMutability": "payable",
      "type": "function"
    },
    {
      "inputs": [
        {
          "internalType": "address",
          "name": "",
          "type": "address"
        }
      ],
      "name": "withdrawAllowance",
      "outputs": [
        {
          "internalType": "uint256",
          "name": "",
          "type": "uint256"
        }
      ],
      "stateMutability": "view",
      "type": "function"
    },
    {
      "stateMutability": "payable",
      "type": "receive"
    }
  ],
  "transactionHash": "0x21415a1a56ac1c08cabbd56a974fcbda6a75e21d2aa19e1382d7154caec3b59d",
  "args": [],
  "numDeployments": 1,
  "solcInputHash": "398019fb93ed270812cc1d31655a7cdb",
  "bytecode": "0x60a060405261271060809081525067016345785d8a00006007553480156200002657600080fd5b506040518060400160405280600581526020017f4d794e46540000000000000000000000000000000000000000000000000000008152506040518060400160405280600481526020017f4d4e4654000000000000000000000000000000000000000000000000000000008152508160009081620000a4919062000339565b508060019081620000b6919062000339565b50505062000420565b600081519050919050565b7f4e487b7100000000000000000000000000000000000000000000000000000000600052604160045260246000fd5b7f4e487b7100000000000000000000000000000000000000000000000000000000600052602260045260246000fd5b600060028204905060018216806200014157607f821691505b602082108103620001575762000156620000f9565b5b50919050565b60008190508160005260206000209050919050565b60006020601f8301049050919050565b600082821b905092915050565b600060088302620001c17fffffffffffffffffffffffffffffffffffffffffffffffffffffffffffffffff8262000182565b620001cd868362000182565b95508019841693508086168417925050509392505050565b6000819050919050565b6000819050919050565b60006200021a620002146200020e84620001e5565b620001ef565b620001e5565b9050919050565b6000819050919050565b6200023683620001f9565b6200024e620002458262000221565b8484546200018f565b825550505050565b600090565b6200026562000256565b620002728184846200022b565b505050565b5b818110156200029a576200028e6000826200025b565b60018101905062000278565b5050565b601f821115620002e957620002b3816200015d565b620002be8462000172565b81016020851015620002ce578190505b620002e6620002dd8562000172565b83018262000277565b50505b505050565b600082821c905092915050565b60006200030e60001984600802620002ee565b1980831691505092915050565b6000620003298383620002fb565b9150826002028217905092915050565b6200034482620000bf565b67ffffffffffffffff81111562000360576200035f620000ca565b5b6200036c825462000128565b620003798282856200029e565b600060209050601f831160018114620003b157600084156200039c578287015190505b620003a885826200031b565b86555062000418565b601f198416620003c1866200015d565b60005b82811015620003eb57848901518255600182019150602085019450602081019050620003c4565b868310156200040b578489015162000407601f891682620002fb565b8355505b6001600288020188555050505b505050505050565b6080516135de62000443600039600081816109f10152610be501526135de6000f3fe6080604052600436106101c65760003560e01c80636352211e116100f757806395d89b4111610095578063c87b56dd11610064578063c87b56dd1461067f578063d9a21c61146106bc578063e985e9c5146106f9578063fe7441e714610736576101cd565b806395d89b41146105c1578063a22cb465146105ec578063a85c38ef14610615578063b88d4fde14610656576101cd565b806379109baa116100d157806379109baa146104ee5780637c38cbfe1461052b57806387f02b42146105685780638ad2d5a714610584576101cd565b80636352211e146104495780636817c76c1461048657806370a08231146104b1576101cd565b806323b872dd116101645780633ccfd60b1161013e5780633ccfd60b146103a957806342842e0e146103b357806355fd0afa146103dc5780635a43dc0014610419576101cd565b806323b872dd1461031857806329e99f071461034157806332cb6b0c1461037e576101cd565b8063081812fc116101a0578063081812fc1461027d578063095ea7b3146102ba5780631249c58b146102e357806318160ddd146102ed576101cd565b8063013cf08b146101d257806301ffc9a71461021557806306fdde0314610252576101cd565b366101cd57005b600080fd5b3480156101de57600080fd5b506101f960048036038101906101f4919061295d565b610773565b60405161020c97969594939291906129f5565b60405180910390f35b34801561022157600080fd5b5061023c60048036038101906102379190612abc565b610802565b6040516102499190612ae9565b60405180910390f35b34801561025e57600080fd5b506102676108e4565b6040516102749190612b94565b60405180910390f35b34801561028957600080fd5b506102a4600480360381019061029f919061295d565b610976565b6040516102b19190612bb6565b60405180910390f35b3480156102c657600080fd5b506102e160048036038101906102dc9190612bfd565b610992565b005b6102eb6109a8565b005b3480156102f957600080fd5b50610302610ab7565b60405161030f9190612c3d565b60405180910390f35b34801561032457600080fd5b5061033f600480360381019061033a9190612c58565b610abd565b005b34801561034d57600080fd5b506103686004803603810190610363919061295d565b610bbf565b6040516103759190612c3d565b60405180910390f35b34801561038a57600080fd5b50610393610be3565b6040516103a09190612c3d565b60405180910390f35b6103b1610c07565b005b3480156103bf57600080fd5b506103da60048036038101906103d59190612c58565b610d5c565b005b3480156103e857600080fd5b5061040360048036038101906103fe919061295d565b610d7c565b6040516104109190612bb6565b60405180910390f35b610433600480360381019061042e919061295d565b610daf565b6040516104409190612c3d565b60405180910390f35b34801561045557600080fd5b50610470600480360381019061046b919061295d565b6111b2565b60405161047d9190612bb6565b60405180910390f35b34801561049257600080fd5b5061049b6111c4565b6040516104a89190612c3d565b60405180910390f35b3480156104bd57600080fd5b506104d860048036038101906104d39190612cab565b6111ca565b6040516104e59190612c3d565b60405180910390f35b3480156104fa57600080fd5b5061051560048036038101906105109190612cd8565b611284565b6040516105229190612c3d565b60405180910390f35b34801561053757600080fd5b50610552600480360381019061054d9190612cab565b611470565b60405161055f9190612c3d565b60405180910390f35b610582600480360381019061057d9190612cd8565b611482565b005b34801561059057600080fd5b506105ab60048036038101906105a6919061295d565b61176c565b6040516105b89190612bb6565b60405180910390f35b3480156105cd57600080fd5b506105d661177e565b6040516105e39190612b94565b60405180910390f35b3480156105f857600080fd5b50610613600480360381019061060e9190612d44565b611810565b005b34801561062157600080fd5b5061063c6004803603810190610637919061295d565b611826565b60405161064d959493929190612d84565b60405180910390f35b34801561066257600080fd5b5061067d60048036038101906106789190612f0c565b611889565b005b34801561068b57600080fd5b506106a660048036038101906106a1919061295d565b6118a6565b6040516106b39190612b94565b60405180910390f35b3480156106c857600080fd5b506106e360048036038101906106de919061295d565b61190f565b6040516106f09190612bb6565b60405180910390f35b34801561070557600080fd5b50610720600480360381019061071b9190612f8f565b611942565b60405161072d9190612ae9565b60405180910390f35b34801561074257600080fd5b5061075d60048036038101906107589190612cab565b6119d6565b60405161076a9190612c3d565b60405180910390f35b600a6020528060005260406000206000915090508060000154908060010154908060020154908060030154908060040160009054906101000a900460ff16908060040160019054906101000a900473ffffffffffffffffffffffffffffffffffffffff16908060050160009054906101000a900473ffffffffffffffffffffffffffffffffffffffff16905087565b60007f80ac58cd000000000000000000000000000000000000000000000000000000007bffffffffffffffffffffffffffffffffffffffffffffffffffffffff1916827bffffffffffffffffffffffffffffffffffffffffffffffffffffffff191614806108cd57507f5b5e139f000000000000000000000000000000000000000000000000000000007bffffffffffffffffffffffffffffffffffffffffffffffffffffffff1916827bffffffffffffffffffffffffffffffffffffffffffffffffffffffff1916145b806108dd57506108dc826119ee565b5b9050919050565b6060600080546108f390612ffe565b80601f016020809104026020016040519081016040528092919081815260200182805461091f90612ffe565b801561096c5780601f106109415761010080835404028352916020019161096c565b820191906000526020600020905b81548152906001019060200180831161094f57829003601f168201915b5050505050905090565b600061098182611a58565b5061098b82611ae0565b9050919050565b6109a4828261099f611b1d565b611b25565b5050565b60075434146109ec576040517f08c379a00000000000000000000000000000000000000000000000000000000081526004016109e39061307b565b60405180910390fd5b6006547f000000000000000000000000000000000000000000000000000000000000000011610a50576040517f08c379a0000000000000000000000000000000000000000000000000000000008152600401610a47906130e7565b60405180910390fd5b60066000815480929190610a6390613136565b919050555060006006549050610a793382611b37565b7f4c209b5fc8ad50758f13e2e1088ba56a560dff690a1c6fef26394f4c03821c4f338242604051610aac9392919061317e565b60405180910390a150565b60065481565b600073ffffffffffffffffffffffffffffffffffffffff168273ffffffffffffffffffffffffffffffffffffffff1603610b2f5760006040517f64a0ae92000000000000000000000000000000000000000000000000000000008152600401610b269190612bb6565b60405180910390fd5b6000610b438383610b3e611b1d565b611b55565b90508373ffffffffffffffffffffffffffffffffffffffff168173ffffffffffffffffffffffffffffffffffffffff1614610bb9578382826040517f64283d7b000000000000000000000000000000000000000000000000000000008152600401610bb0939291906131b5565b60405180910390fd5b50505050565b60088181548110610bcf57600080fd5b906000526020600020016000915090505481565b7f000000000000000000000000000000000000000000000000000000000000000081565b6000600d60003373ffffffffffffffffffffffffffffffffffffffff1673ffffffffffffffffffffffffffffffffffffffff1681526020019081526020016000205411610c89576040517f08c379a0000000000000000000000000000000000000000000000000000000008152600401610c8090613238565b60405180910390fd5b6000600d60003373ffffffffffffffffffffffffffffffffffffffff1673ffffffffffffffffffffffffffffffffffffffff1681526020019081526020016000205490506000600d60003373ffffffffffffffffffffffffffffffffffffffff1673ffffffffffffffffffffffffffffffffffffffff168152602001908152602001600020819055503373ffffffffffffffffffffffffffffffffffffffff166108fc829081150290604051600060405180830381858888f19350505050158015610d58573d6000803e3d6000fd5b5050565b610d7783838360405180602001604052806000815250611889565b505050565b600b6020528060005260406000206000915054906101000a900473ffffffffffffffffffffffffffffffffffffffff1681565b6000600754341015610df6576040517f08c379a0000000000000000000000000000000000000000000000000000000008152600401610ded9061307b565b60405180910390fd5b60003090508073ffffffffffffffffffffffffffffffffffffffff166108fc349081150290604051600060405180830381858888f19350505050158015610e41573d6000803e3d6000fd5b5034600d60003373ffffffffffffffffffffffffffffffffffffffff1673ffffffffffffffffffffffffffffffffffffffff168152602001908152602001600020819055506000600960008581526020019081526020016000206040518060a00160405290816000820154815260200160018201548152602001600282015481526020016003820160009054906101000a900460ff161515151581526020016003820160019054906101000a900473ffffffffffffffffffffffffffffffffffffffff1673ffffffffffffffffffffffffffffffffffffffff1673ffffffffffffffffffffffffffffffffffffffff16815250509050600033826020015134604051602001610f52939291906132c1565b6040516020818303038152906040528051906020012060001c905060006040518060e00160405280838152602001878152602001846020015181526020013481526020016000151581526020013373ffffffffffffffffffffffffffffffffffffffff168152602001846080015173ffffffffffffffffffffffffffffffffffffffff16815250905080600a60008481526020019081526020016000206000820151816000015560208201518160010155604082015181600201556060820151816003015560808201518160040160006101000a81548160ff02191690831515021790555060a08201518160040160016101000a81548173ffffffffffffffffffffffffffffffffffffffff021916908373ffffffffffffffffffffffffffffffffffffffff16021790555060c08201518160050160006101000a81548173ffffffffffffffffffffffffffffffffffffffff021916908373ffffffffffffffffffffffffffffffffffffffff1602179055509050508260800151600c600084815260200190815260200160002060006101000a81548173ffffffffffffffffffffffffffffffffffffffff021916908373ffffffffffffffffffffffffffffffffffffffff16021790555060088290806001815401808255809150506001900390600052602060002001600090919091909150557fc7c0edbc4d6d43ece329407e2a7b1fb938c4e0fe6f5036b467b692f43b13b9ac816000015182602001518360400151846060015185608001518660a001518760c0015160405161119e97969594939291906129f5565b60405180910390a181945050505050919050565b60006111bd82611a58565b9050919050565b60075481565b60008073ffffffffffffffffffffffffffffffffffffffff168273ffffffffffffffffffffffffffffffffffffffff160361123d5760006040517f89c62b640000000000000000000000000000000000000000000000000000000081526004016112349190612bb6565b60405180910390fd5b600360008373ffffffffffffffffffffffffffffffffffffffff1673ffffffffffffffffffffffffffffffffffffffff168152602001908152602001600020549050919050565b60008033848460405160200161129c939291906132c1565b6040516020818303038152906040528051906020012060001c905060006040518060a001604052808381526020018681526020018581526020016000151581526020013373ffffffffffffffffffffffffffffffffffffffff168152509050806009600084815260200190815260200160002060008201518160000155602082015181600101556040820151816002015560608201518160030160006101000a81548160ff02191690831515021790555060808201518160030160016101000a81548173ffffffffffffffffffffffffffffffffffffffff021916908373ffffffffffffffffffffffffffffffffffffffff16021790555090505033600b600084815260200190815260200160002060006101000a81548173ffffffffffffffffffffffffffffffffffffffff021916908373ffffffffffffffffffffffffffffffffffffffff16021790555060088290806001815401808255809150506001900390600052602060002001600090919091909150557f903faf9964d302ab8b455a76cb2e12ef75467cc85398e5c67dd8d2407da9a5948160000151826020015183604001518460600151856080015160405161145d959493929190612d84565b60405180910390a1819250505092915050565b600061147b826111ca565b9050919050565b3373ffffffffffffffffffffffffffffffffffffffff16600b600084815260200190815260200160002060009054906101000a900473ffffffffffffffffffffffffffffffffffffffff1673ffffffffffffffffffffffffffffffffffffffff1614611523576040517f08c379a000000000000000000000000000000000000000000000000000000000815260040161151a9061334a565b60405180910390fd5b6000600a60008381526020019081526020016000206040518060e0016040529081600082015481526020016001820154815260200160028201548152602001600382015481526020016004820160009054906101000a900460ff161515151581526020016004820160019054906101000a900473ffffffffffffffffffffffffffffffffffffffff1673ffffffffffffffffffffffffffffffffffffffff1673ffffffffffffffffffffffffffffffffffffffff1681526020016005820160009054906101000a900473ffffffffffffffffffffffffffffffffffffffff1673ffffffffffffffffffffffffffffffffffffffff1673ffffffffffffffffffffffffffffffffffffffff168152505090508281602001511461167a576040517f08c379a0000000000000000000000000000000000000000000000000000000008152600401611671906133b6565b60405180910390fd5b600b600084815260200190815260200160002060006101000a81549073ffffffffffffffffffffffffffffffffffffffff021916905560096000848152602001908152602001600020600080820160009055600182016000905560028201600090556003820160006101000a81549060ff02191690556003820160016101000a81549073ffffffffffffffffffffffffffffffffffffffff0219169055505061172c338260a001518360400151611d6f565b7f016814bc84e7fcf63bddbbe1fa159e54dda9b63f6f9ee1f73ce2f10a2e6c2a5d83834260405161175f939291906133d6565b60405180910390a1505050565b6000611777826111b2565b9050919050565b60606001805461178d90612ffe565b80601f01602080910402602001604051908101604052809291908181526020018280546117b990612ffe565b80156118065780601f106117db57610100808354040283529160200191611806565b820191906000526020600020905b8154815290600101906020018083116117e957829003601f168201915b5050505050905090565b61182261181b611b1d565b8383611d8f565b5050565b60096020528060005260406000206000915090508060000154908060010154908060020154908060030160009054906101000a900460ff16908060030160019054906101000a900473ffffffffffffffffffffffffffffffffffffffff16905085565b611894848484610abd565b6118a084848484611efe565b50505050565b60606118b182611a58565b5060006118bc6120b5565b905060008151116118dc5760405180602001604052806000815250611907565b806118e6846120cc565b6040516020016118f7929190613449565b6040516020818303038152906040525b915050919050565b600c6020528060005260406000206000915054906101000a900473ffffffffffffffffffffffffffffffffffffffff1681565b6000600560008473ffffffffffffffffffffffffffffffffffffffff1673ffffffffffffffffffffffffffffffffffffffff16815260200190815260200160002060008373ffffffffffffffffffffffffffffffffffffffff1673ffffffffffffffffffffffffffffffffffffffff16815260200190815260200160002060009054906101000a900460ff16905092915050565b600d6020528060005260406000206000915090505481565b60007f01ffc9a7000000000000000000000000000000000000000000000000000000007bffffffffffffffffffffffffffffffffffffffffffffffffffffffff1916827bffffffffffffffffffffffffffffffffffffffffffffffffffffffff1916149050919050565b600080611a648361219a565b9050600073ffffffffffffffffffffffffffffffffffffffff168173ffffffffffffffffffffffffffffffffffffffff1603611ad757826040517f7e273289000000000000000000000000000000000000000000000000000000008152600401611ace9190612c3d565b60405180910390fd5b80915050919050565b60006004600083815260200190815260200160002060009054906101000a900473ffffffffffffffffffffffffffffffffffffffff169050919050565b600033905090565b611b3283838360016121d7565b505050565b611b5182826040518060200160405280600081525061239c565b5050565b600080611b618461219a565b9050600073ffffffffffffffffffffffffffffffffffffffff168373ffffffffffffffffffffffffffffffffffffffff1614611ba357611ba28184866123b8565b5b600073ffffffffffffffffffffffffffffffffffffffff168173ffffffffffffffffffffffffffffffffffffffff1614611c3457611be56000856000806121d7565b6001600360008373ffffffffffffffffffffffffffffffffffffffff1673ffffffffffffffffffffffffffffffffffffffff168152602001908152602001600020600082825403925050819055505b600073ffffffffffffffffffffffffffffffffffffffff168573ffffffffffffffffffffffffffffffffffffffff1614611cb7576001600360008773ffffffffffffffffffffffffffffffffffffffff1673ffffffffffffffffffffffffffffffffffffffff168152602001908152602001600020600082825401925050819055505b846002600086815260200190815260200160002060006101000a81548173ffffffffffffffffffffffffffffffffffffffff021916908373ffffffffffffffffffffffffffffffffffffffff160217905550838573ffffffffffffffffffffffffffffffffffffffff168273ffffffffffffffffffffffffffffffffffffffff167fddf252ad1be2c89b69c2b068fc378daa952ba7f163c4a11628f55a4df523b3ef60405160405180910390a4809150509392505050565b611d8a8383836040518060200160405280600081525061247c565b505050565b600073ffffffffffffffffffffffffffffffffffffffff168273ffffffffffffffffffffffffffffffffffffffff1603611e0057816040517f5b08ba18000000000000000000000000000000000000000000000000000000008152600401611df79190612bb6565b60405180910390fd5b80600560008573ffffffffffffffffffffffffffffffffffffffff1673ffffffffffffffffffffffffffffffffffffffff16815260200190815260200160002060008473ffffffffffffffffffffffffffffffffffffffff1673ffffffffffffffffffffffffffffffffffffffff16815260200190815260200160002060006101000a81548160ff0219169083151502179055508173ffffffffffffffffffffffffffffffffffffffff168373ffffffffffffffffffffffffffffffffffffffff167f17307eab39ab6107e8899845ad3d59bd9653f200f220920489ca2b5937696c3183604051611ef19190612ae9565b60405180910390a3505050565b60008373ffffffffffffffffffffffffffffffffffffffff163b11156120af578273ffffffffffffffffffffffffffffffffffffffff1663150b7a02611f42611b1d565b8685856040518563ffffffff1660e01b8152600401611f6494939291906134c2565b6020604051808303816000875af1925050508015611fa057506040513d601f19601f82011682018060405250810190611f9d9190613523565b60015b612024573d8060008114611fd0576040519150601f19603f3d011682016040523d82523d6000602084013e611fd5565b606091505b50600081510361201c57836040517f64a0ae920000000000000000000000000000000000000000000000000000000081526004016120139190612bb6565b60405180910390fd5b805181602001fd5b63150b7a0260e01b7bffffffffffffffffffffffffffffffffffffffffffffffffffffffff1916817bffffffffffffffffffffffffffffffffffffffffffffffffffffffff1916146120ad57836040517f64a0ae920000000000000000000000000000000000000000000000000000000081526004016120a49190612bb6565b60405180910390fd5b505b50505050565b606060405180602001604052806000815250905090565b6060600060016120db84612499565b01905060008167ffffffffffffffff8111156120fa576120f9612de1565b5b6040519080825280601f01601f19166020018201604052801561212c5781602001600182028036833780820191505090505b509050600082602001820190505b60011561218f578080600190039150507f3031323334353637383961626364656600000000000000000000000000000000600a86061a8153600a858161218357612182613550565b5b0494506000850361213a575b819350505050919050565b60006002600083815260200190815260200160002060009054906101000a900473ffffffffffffffffffffffffffffffffffffffff169050919050565b80806122105750600073ffffffffffffffffffffffffffffffffffffffff168273ffffffffffffffffffffffffffffffffffffffff1614155b1561234457600061222084611a58565b9050600073ffffffffffffffffffffffffffffffffffffffff168373ffffffffffffffffffffffffffffffffffffffff161415801561228b57508273ffffffffffffffffffffffffffffffffffffffff168173ffffffffffffffffffffffffffffffffffffffff1614155b801561229e575061229c8184611942565b155b156122e057826040517fa9fbf51f0000000000000000000000000000000000000000000000000000000081526004016122d79190612bb6565b60405180910390fd5b811561234257838573ffffffffffffffffffffffffffffffffffffffff168273ffffffffffffffffffffffffffffffffffffffff167f8c5be1e5ebec7d5bd14f71427d1e84f3dd0314c0f7b2291e5b200ac8c7c3b92560405160405180910390a45b505b836004600085815260200190815260200160002060006101000a81548173ffffffffffffffffffffffffffffffffffffffff021916908373ffffffffffffffffffffffffffffffffffffffff16021790555050505050565b6123a683836125ec565b6123b36000848484611efe565b505050565b6123c38383836126e5565b61247757600073ffffffffffffffffffffffffffffffffffffffff168373ffffffffffffffffffffffffffffffffffffffff160361243857806040517f7e27328900000000000000000000000000000000000000000000000000000000815260040161242f9190612c3d565b60405180910390fd5b81816040517f177e802f00000000000000000000000000000000000000000000000000000000815260040161246e92919061357f565b60405180910390fd5b505050565b6124878484846127a6565b61249384848484611efe565b50505050565b600080600090507a184f03e93ff9f4daa797ed6e38ed64bf6a1f01000000000000000083106124f7577a184f03e93ff9f4daa797ed6e38ed64bf6a1f01000000000000000083816124ed576124ec613550565b5b0492506040810190505b6d04ee2d6d415b85acef81000000008310612534576d04ee2d6d415b85acef8100000000838161252a57612529613550565b5b0492506020810190505b662386f26fc10000831061256357662386f26fc10000838161255957612558613550565b5b0492506010810190505b6305f5e100831061258c576305f5e100838161258257612581613550565b5b0492506008810190505b61271083106125b15761271083816125a7576125a6613550565b5b0492506004810190505b606483106125d457606483816125ca576125c9613550565b5b0492506002810190505b600a83106125e3576001810190505b80915050919050565b600073ffffffffffffffffffffffffffffffffffffffff168273ffffffffffffffffffffffffffffffffffffffff160361265e5760006040517f64a0ae920000000000000000000000000000000000000000000000000000000081526004016126559190612bb6565b60405180910390fd5b600061266c83836000611b55565b9050600073ffffffffffffffffffffffffffffffffffffffff168173ffffffffffffffffffffffffffffffffffffffff16146126e05760006040517f73c6ac6e0000000000000000000000000000000000000000000000000000000081526004016126d79190612bb6565b60405180910390fd5b505050565b60008073ffffffffffffffffffffffffffffffffffffffff168373ffffffffffffffffffffffffffffffffffffffff161415801561279d57508273ffffffffffffffffffffffffffffffffffffffff168473ffffffffffffffffffffffffffffffffffffffff16148061275e575061275d8484611942565b5b8061279c57508273ffffffffffffffffffffffffffffffffffffffff1661278483611ae0565b73ffffffffffffffffffffffffffffffffffffffff16145b5b90509392505050565b600073ffffffffffffffffffffffffffffffffffffffff168273ffffffffffffffffffffffffffffffffffffffff16036128185760006040517f64a0ae9200000000000000000000000000000000000000000000000000000000815260040161280f9190612bb6565b60405180910390fd5b600061282683836000611b55565b9050600073ffffffffffffffffffffffffffffffffffffffff168173ffffffffffffffffffffffffffffffffffffffff160361289957816040517f7e2732890000000000000000000000000000000000000000000000000000000081526004016128909190612c3d565b60405180910390fd5b8373ffffffffffffffffffffffffffffffffffffffff168173ffffffffffffffffffffffffffffffffffffffff161461290d578382826040517f64283d7b000000000000000000000000000000000000000000000000000000008152600401612904939291906131b5565b60405180910390fd5b50505050565b6000604051905090565b600080fd5b600080fd5b6000819050919050565b61293a81612927565b811461294557600080fd5b50565b60008135905061295781612931565b92915050565b6000602082840312156129735761297261291d565b5b600061298184828501612948565b91505092915050565b61299381612927565b82525050565b60008115159050919050565b6129ae81612999565b82525050565b600073ffffffffffffffffffffffffffffffffffffffff82169050919050565b60006129df826129b4565b9050919050565b6129ef816129d4565b82525050565b600060e082019050612a0a600083018a61298a565b612a17602083018961298a565b612a24604083018861298a565b612a31606083018761298a565b612a3e60808301866129a5565b612a4b60a08301856129e6565b612a5860c08301846129e6565b98975050505050505050565b60007fffffffff0000000000000000000000000000000000000000000000000000000082169050919050565b612a9981612a64565b8114612aa457600080fd5b50565b600081359050612ab681612a90565b92915050565b600060208284031215612ad257612ad161291d565b5b6000612ae084828501612aa7565b91505092915050565b6000602082019050612afe60008301846129a5565b92915050565b600081519050919050565b600082825260208201905092915050565b60005b83811015612b3e578082015181840152602081019050612b23565b60008484015250505050565b6000601f19601f8301169050919050565b6000612b6682612b04565b612b708185612b0f565b9350612b80818560208601612b20565b612b8981612b4a565b840191505092915050565b60006020820190508181036000830152612bae8184612b5b565b905092915050565b6000602082019050612bcb60008301846129e6565b92915050565b612bda816129d4565b8114612be557600080fd5b50565b600081359050612bf781612bd1565b92915050565b60008060408385031215612c1457612c1361291d565b5b6000612c2285828601612be8565b9250506020612c3385828601612948565b9150509250929050565b6000602082019050612c52600083018461298a565b92915050565b600080600060608486031215612c7157612c7061291d565b5b6000612c7f86828701612be8565b9350506020612c9086828701612be8565b9250506040612ca186828701612948565b9150509250925092565b600060208284031215612cc157612cc061291d565b5b6000612ccf84828501612be8565b91505092915050565b60008060408385031215612cef57612cee61291d565b5b6000612cfd85828601612948565b9250506020612d0e85828601612948565b9150509250929050565b612d2181612999565b8114612d2c57600080fd5b50565b600081359050612d3e81612d18565b92915050565b60008060408385031215612d5b57612d5a61291d565b5b6000612d6985828601612be8565b9250506020612d7a85828601612d2f565b9150509250929050565b600060a082019050612d99600083018861298a565b612da6602083018761298a565b612db3604083018661298a565b612dc060608301856129a5565b612dcd60808301846129e6565b9695505050505050565b600080fd5b600080fd5b7f4e487b7100000000000000000000000000000000000000000000000000000000600052604160045260246000fd5b612e1982612b4a565b810181811067ffffffffffffffff82111715612e3857612e37612de1565b5b80604052505050565b6000612e4b612913565b9050612e578282612e10565b919050565b600067ffffffffffffffff821115612e7757612e76612de1565b5b612e8082612b4a565b9050602081019050919050565b82818337600083830152505050565b6000612eaf612eaa84612e5c565b612e41565b905082815260208101848484011115612ecb57612eca612ddc565b5b612ed6848285612e8d565b509392505050565b600082601f830112612ef357612ef2612dd7565b5b8135612f03848260208601612e9c565b91505092915050565b60008060008060808587031215612f2657612f2561291d565b5b6000612f3487828801612be8565b9450506020612f4587828801612be8565b9350506040612f5687828801612948565b925050606085013567ffffffffffffffff811115612f7757612f76612922565b5b612f8387828801612ede565b91505092959194509250565b60008060408385031215612fa657612fa561291d565b5b6000612fb485828601612be8565b9250506020612fc585828601612be8565b9150509250929050565b7f4e487b7100000000000000000000000000000000000000000000000000000000600052602260045260246000fd5b6000600282049050600182168061301657607f821691505b60208210810361302957613028612fcf565b5b50919050565b7f57726f6e672076616c7565000000000000000000000000000000000000000000600082015250565b6000613065600b83612b0f565b91506130708261302f565b602082019050919050565b6000602082019050818103600083015261309481613058565b9050919050565b7f536f6c64206f7574000000000000000000000000000000000000000000000000600082015250565b60006130d1600883612b0f565b91506130dc8261309b565b602082019050919050565b60006020820190508181036000830152613100816130c4565b9050919050565b7f4e487b7100000000000000000000000000000000000000000000000000000000600052601160045260246000fd5b600061314182612927565b91507fffffffffffffffffffffffffffffffffffffffffffffffffffffffffffffffff820361317357613172613107565b5b600182019050919050565b600060608201905061319360008301866129e6565b6131a0602083018561298a565b6131ad604083018461298a565b949350505050565b60006060820190506131ca60008301866129e6565b6131d7602083018561298a565b6131e460408301846129e6565b949350505050565b7f496e73756666696369656e742062616c616e6365000000000000000000000000600082015250565b6000613222601483612b0f565b915061322d826131ec565b602082019050919050565b6000602082019050818103600083015261325181613215565b9050919050565b60008160601b9050919050565b600061327082613258565b9050919050565b600061328282613265565b9050919050565b61329a613295826129d4565b613277565b82525050565b6000819050919050565b6132bb6132b682612927565b6132a0565b82525050565b60006132cd8286613289565b6014820191506132dd82856132aa565b6020820191506132ed82846132aa565b602082019150819050949350505050565b7f4e6f7420746865206f72646572206f776e657200000000000000000000000000600082015250565b6000613334601383612b0f565b915061333f826132fe565b602082019050919050565b6000602082019050818103600083015261336381613327565b9050919050565b7f57726f6e672070726f706f73616c206964000000000000000000000000000000600082015250565b60006133a0601183612b0f565b91506133ab8261336a565b602082019050919050565b600060208201905081810360008301526133cf81613393565b9050919050565b60006060820190506133eb600083018661298a565b6133f8602083018561298a565b613405604083018461298a565b949350505050565b600081905092915050565b600061342382612b04565b61342d818561340d565b935061343d818560208601612b20565b80840191505092915050565b60006134558285613418565b91506134618284613418565b91508190509392505050565b600081519050919050565b600082825260208201905092915050565b60006134948261346d565b61349e8185613478565b93506134ae818560208601612b20565b6134b781612b4a565b840191505092915050565b60006080820190506134d760008301876129e6565b6134e460208301866129e6565b6134f1604083018561298a565b81810360608301526135038184613489565b905095945050505050565b60008151905061351d81612a90565b92915050565b6000602082840312156135395761353861291d565b5b60006135478482850161350e565b91505092915050565b7f4e487b7100000000000000000000000000000000000000000000000000000000600052601260045260246000fd5b600060408201905061359460008301856129e6565b6135a1602083018461298a565b939250505056fea264697066735822122019adaeba5c43a9629905b1aa22d47a0c10b8e74ba2fde8fb15f45fd5eff5238564736f6c63430008140033",
  "devdoc": {
    "errors": {
      "ERC721IncorrectOwner(address,uint256,address)": [
        {
          "details": "Indicates an error related to the ownership over a particular token. Used in transfers.",
          "params": {
            "owner": "Address of the current owner of a token.",
            "sender": "Address whose tokens are being transferred.",
            "tokenId": "Identifier number of a token."
          }
        }
      ],
      "ERC721InsufficientApproval(address,uint256)": [
        {
          "details": "Indicates a failure with the `operator`s approval. Used in transfers.",
          "params": {
            "operator": "Address that may be allowed to operate on tokens without being their owner.",
            "tokenId": "Identifier number of a token."
          }
        }
      ],
      "ERC721InvalidApprover(address)": [
        {
          "details": "Indicates a failure with the `approver` of a token to be approved. Used in approvals.",
          "params": {
            "approver": "Address initiating an approval operation."
          }
        }
      ],
      "ERC721InvalidOperator(address)": [
        {
          "details": "Indicates a failure with the `operator` to be approved. Used in approvals.",
          "params": {
            "operator": "Address that may be allowed to operate on tokens without being their owner."
          }
        }
      ],
      "ERC721InvalidOwner(address)": [
        {
          "details": "Indicates that an address can't be an owner. For example, `address(0)` is a forbidden owner in EIP-20. Used in balance queries.",
          "params": {
            "owner": "Address of the current owner of a token."
          }
        }
      ],
      "ERC721InvalidReceiver(address)": [
        {
          "details": "Indicates a failure with the token `receiver`. Used in transfers.",
          "params": {
            "receiver": "Address to which tokens are being transferred."
          }
        }
      ],
      "ERC721InvalidSender(address)": [
        {
          "details": "Indicates a failure with the token `sender`. Used in transfers.",
          "params": {
            "sender": "Address whose tokens are being transferred."
          }
        }
      ],
      "ERC721NonexistentToken(uint256)": [
        {
          "details": "Indicates a `tokenId` whose `owner` is the zero address.",
          "params": {
            "tokenId": "Identifier number of a token."
          }
        }
      ]
    },
    "events": {
      "Approval(address,address,uint256)": {
        "details": "Emitted when `owner` enables `approved` to manage the `tokenId` token."
      },
      "ApprovalForAll(address,address,bool)": {
        "details": "Emitted when `owner` enables or disables (`approved`) `operator` to manage all of its assets."
      },
      "Transfer(address,address,uint256)": {
        "details": "Emitted when `tokenId` token is transferred from `from` to `to`."
      }
    },
    "kind": "dev",
    "methods": {
      "approve(address,uint256)": {
        "details": "See {IERC721-approve}."
      },
      "balanceOf(address)": {
        "details": "See {IERC721-balanceOf}."
      },
      "getApproved(uint256)": {
        "details": "See {IERC721-getApproved}."
      },
      "isApprovedForAll(address,address)": {
        "details": "See {IERC721-isApprovedForAll}."
      },
      "name()": {
        "details": "See {IERC721Metadata-name}."
      },
      "ownerOf(uint256)": {
        "details": "See {IERC721-ownerOf}."
      },
      "safeTransferFrom(address,address,uint256)": {
        "details": "See {IERC721-safeTransferFrom}."
      },
      "safeTransferFrom(address,address,uint256,bytes)": {
        "details": "See {IERC721-safeTransferFrom}."
      },
      "setApprovalForAll(address,bool)": {
        "details": "See {IERC721-setApprovalForAll}."
      },
      "supportsInterface(bytes4)": {
        "details": "See {IERC165-supportsInterface}."
      },
      "symbol()": {
        "details": "See {IERC721Metadata-symbol}."
      },
      "tokenURI(uint256)": {
        "details": "See {IERC721Metadata-tokenURI}."
      },
      "transferFrom(address,address,uint256)": {
        "details": "See {IERC721-transferFrom}."
      }
    },
    "version": 1
  },
  "userdoc": {
    "kind": "user",
    "methods": {},
    "version": 1
  },
  "storageLayout": {
    "storage": [
      {
        "astId": 169,
        "contract": "contracts/MNFT.sol:MNFT",
        "label": "_name",
        "offset": 0,
        "slot": "0",
        "type": "t_string_storage"
      },
      {
        "astId": 171,
        "contract": "contracts/MNFT.sol:MNFT",
        "label": "_symbol",
        "offset": 0,
        "slot": "1",
        "type": "t_string_storage"
      },
      {
        "astId": 175,
        "contract": "contracts/MNFT.sol:MNFT",
        "label": "_owners",
        "offset": 0,
        "slot": "2",
        "type": "t_mapping(t_uint256,t_address)"
      },
      {
        "astId": 179,
        "contract": "contracts/MNFT.sol:MNFT",
        "label": "_balances",
        "offset": 0,
        "slot": "3",
        "type": "t_mapping(t_address,t_uint256)"
      },
      {
        "astId": 183,
        "contract": "contracts/MNFT.sol:MNFT",
        "label": "_tokenApprovals",
        "offset": 0,
        "slot": "4",
        "type": "t_mapping(t_uint256,t_address)"
      },
      {
        "astId": 189,
        "contract": "contracts/MNFT.sol:MNFT",
        "label": "_operatorApprovals",
        "offset": 0,
        "slot": "5",
        "type": "t_mapping(t_address,t_mapping(t_address,t_bool))"
      },
      {
        "astId": 2799,
        "contract": "contracts/MNFT.sol:MNFT",
        "label": "totalSupply",
        "offset": 0,
        "slot": "6",
        "type": "t_uint256"
      },
      {
        "astId": 2802,
        "contract": "contracts/MNFT.sol:MNFT",
        "label": "mintPrice",
        "offset": 0,
        "slot": "7",
        "type": "t_uint256"
      },
      {
        "astId": 2831,
        "contract": "contracts/MNFT.sol:MNFT",
        "label": "test",
        "offset": 0,
        "slot": "8",
        "type": "t_array(t_uint256)dyn_storage"
      },
      {
        "astId": 2836,
        "contract": "contracts/MNFT.sol:MNFT",
        "label": "orders",
        "offset": 0,
        "slot": "9",
        "type": "t_mapping(t_uint256,t_struct(Order)2813_storage)"
      },
      {
        "astId": 2841,
        "contract": "contracts/MNFT.sol:MNFT",
        "label": "proposals",
        "offset": 0,
        "slot": "10",
        "type": "t_mapping(t_uint256,t_struct(Proposal)2828_storage)"
      },
      {
        "astId": 2845,
        "contract": "contracts/MNFT.sol:MNFT",
        "label": "userOrders",
        "offset": 0,
        "slot": "11",
        "type": "t_mapping(t_uint256,t_address)"
      },
      {
        "astId": 2849,
        "contract": "contracts/MNFT.sol:MNFT",
        "label": "userProposals",
        "offset": 0,
        "slot": "12",
        "type": "t_mapping(t_uint256,t_address)"
      },
      {
        "astId": 2853,
        "contract": "contracts/MNFT.sol:MNFT",
        "label": "withdrawAllowance",
        "offset": 0,
        "slot": "13",
        "type": "t_mapping(t_address,t_uint256)"
      }
    ],
    "types": {
      "t_address": {
        "encoding": "inplace",
        "label": "address",
        "numberOfBytes": "20"
      },
      "t_array(t_uint256)dyn_storage": {
        "base": "t_uint256",
        "encoding": "dynamic_array",
        "label": "uint256[]",
        "numberOfBytes": "32"
      },
      "t_bool": {
        "encoding": "inplace",
        "label": "bool",
        "numberOfBytes": "1"
      },
      "t_mapping(t_address,t_bool)": {
        "encoding": "mapping",
        "key": "t_address",
        "label": "mapping(address => bool)",
        "numberOfBytes": "32",
        "value": "t_bool"
      },
      "t_mapping(t_address,t_mapping(t_address,t_bool))": {
        "encoding": "mapping",
        "key": "t_address",
        "label": "mapping(address => mapping(address => bool))",
        "numberOfBytes": "32",
        "value": "t_mapping(t_address,t_bool)"
      },
      "t_mapping(t_address,t_uint256)": {
        "encoding": "mapping",
        "key": "t_address",
        "label": "mapping(address => uint256)",
        "numberOfBytes": "32",
        "value": "t_uint256"
      },
      "t_mapping(t_uint256,t_address)": {
        "encoding": "mapping",
        "key": "t_uint256",
        "label": "mapping(uint256 => address)",
        "numberOfBytes": "32",
        "value": "t_address"
      },
      "t_mapping(t_uint256,t_struct(Order)2813_storage)": {
        "encoding": "mapping",
        "key": "t_uint256",
        "label": "mapping(uint256 => struct MNFT.Order)",
        "numberOfBytes": "32",
        "value": "t_struct(Order)2813_storage"
      },
      "t_mapping(t_uint256,t_struct(Proposal)2828_storage)": {
        "encoding": "mapping",
        "key": "t_uint256",
        "label": "mapping(uint256 => struct MNFT.Proposal)",
        "numberOfBytes": "32",
        "value": "t_struct(Proposal)2828_storage"
      },
      "t_string_storage": {
        "encoding": "bytes",
        "label": "string",
        "numberOfBytes": "32"
      },
      "t_struct(Order)2813_storage": {
        "encoding": "inplace",
        "label": "struct MNFT.Order",
        "members": [
          {
            "astId": 2804,
            "contract": "contracts/MNFT.sol:MNFT",
            "label": "id",
            "offset": 0,
            "slot": "0",
            "type": "t_uint256"
          },
          {
            "astId": 2806,
            "contract": "contracts/MNFT.sol:MNFT",
            "label": "nft",
            "offset": 0,
            "slot": "1",
            "type": "t_uint256"
          },
          {
            "astId": 2808,
            "contract": "contracts/MNFT.sol:MNFT",
            "label": "price",
            "offset": 0,
            "slot": "2",
            "type": "t_uint256"
          },
          {
            "astId": 2810,
            "contract": "contracts/MNFT.sol:MNFT",
            "label": "isClosed",
            "offset": 0,
            "slot": "3",
            "type": "t_bool"
          },
          {
            "astId": 2812,
            "contract": "contracts/MNFT.sol:MNFT",
            "label": "owner",
            "offset": 1,
            "slot": "3",
            "type": "t_address"
          }
        ],
        "numberOfBytes": "128"
      },
      "t_struct(Proposal)2828_storage": {
        "encoding": "inplace",
        "label": "struct MNFT.Proposal",
        "members": [
          {
            "astId": 2815,
            "contract": "contracts/MNFT.sol:MNFT",
            "label": "id",
            "offset": 0,
            "slot": "0",
            "type": "t_uint256"
          },
          {
            "astId": 2817,
            "contract": "contracts/MNFT.sol:MNFT",
            "label": "orderId",
            "offset": 0,
            "slot": "1",
            "type": "t_uint256"
          },
          {
            "astId": 2819,
            "contract": "contracts/MNFT.sol:MNFT",
            "label": "nft",
            "offset": 0,
            "slot": "2",
            "type": "t_uint256"
          },
          {
            "astId": 2821,
            "contract": "contracts/MNFT.sol:MNFT",
            "label": "price",
            "offset": 0,
            "slot": "3",
            "type": "t_uint256"
          },
          {
            "astId": 2823,
            "contract": "contracts/MNFT.sol:MNFT",
            "label": "isClosed",
            "offset": 0,
            "slot": "4",
            "type": "t_bool"
          },
          {
            "astId": 2825,
            "contract": "contracts/MNFT.sol:MNFT",
            "label": "author",
            "offset": 1,
            "slot": "4",
            "type": "t_address"
          },
          {
            "astId": 2827,
            "contract": "contracts/MNFT.sol:MNFT",
            "label": "orderOwner",
            "offset": 0,
            "slot": "5",
            "type": "t_address"
          }
        ],
        "numberOfBytes": "192"
      },
      "t_uint256": {
        "encoding": "inplace",
        "label": "uint256",
        "numberOfBytes": "32"
      }
    }
  }
}